{
  "_format": "hh-sol-artifact-1",
  "contractName": "RewardDistributor",
  "sourceName": "contracts/RewardDistributor.sol",
  "abi": [
    {
      "inputs": [],
      "name": "ReentrancyGuardReentrantCall",
      "type": "error"
    },
    {
      "inputs": [
        {
          "internalType": "address",
          "name": "token",
          "type": "address"
        }
      ],
      "name": "SafeERC20FailedOperation",
      "type": "error"
    },
    {
      "anonymous": false,
      "inputs": [
        {
          "indexed": false,
          "internalType": "uint256",
          "name": "oldFee",
          "type": "uint256"
        },
        {
          "indexed": false,
          "internalType": "uint256",
          "name": "newFee",
          "type": "uint256"
        }
      ],
      "name": "PosterFeeUpdated",
      "type": "event"
    },
    {
      "anonymous": false,
      "inputs": [
        {
          "indexed": false,
          "internalType": "address",
          "name": "recipient",
          "type": "address"
        },
        {
          "indexed": false,
          "internalType": "uint256",
          "name": "amount",
          "type": "uint256"
        },
        {
          "indexed": false,
          "internalType": "address",
          "name": "claimer",
          "type": "address"
        }
      ],
      "name": "RewardClaimed",
      "type": "event"
    },
    {
      "anonymous": false,
      "inputs": [
        {
          "indexed": false,
          "internalType": "bytes32",
          "name": "root",
          "type": "bytes32"
        },
        {
          "indexed": false,
          "internalType": "uint256",
          "name": "amount",
          "type": "uint256"
        },
        {
          "indexed": false,
          "internalType": "address",
          "name": "poster",
          "type": "address"
        }
      ],
      "name": "RewardPosted",
      "type": "event"
    },
    {
      "inputs": [
        {
          "internalType": "address",
          "name": "recipient",
          "type": "address"
        },
        {
          "internalType": "uint256",
          "name": "amount",
          "type": "uint256"
        },
        {
          "internalType": "bytes32",
          "name": "kwilBlockHash",
          "type": "bytes32"
        },
        {
          "internalType": "bytes32",
          "name": "rewardRoot",
          "type": "bytes32"
        },
        {
          "internalType": "bytes32[]",
          "name": "proofs",
          "type": "bytes32[]"
        }
      ],
      "name": "claimReward",
      "outputs": [],
      "stateMutability": "payable",
      "type": "function"
    },
    {
      "inputs": [
        {
          "internalType": "bytes32",
          "name": "",
          "type": "bytes32"
        },
        {
          "internalType": "bytes32",
          "name": "",
          "type": "bytes32"
        }
      ],
      "name": "isLeafRewardClaimed",
      "outputs": [
        {
          "internalType": "bool",
          "name": "",
          "type": "bool"
        }
      ],
      "stateMutability": "view",
      "type": "function"
    },
    {
      "inputs": [],
      "name": "maxPosterFee",
      "outputs": [
        {
          "internalType": "uint256",
          "name": "",
          "type": "uint256"
        }
      ],
      "stateMutability": "view",
      "type": "function"
    },
    {
      "inputs": [
        {
          "internalType": "bytes32",
          "name": "root",
          "type": "bytes32"
        },
        {
          "internalType": "uint256",
          "name": "amount",
          "type": "uint256"
        }
      ],
      "name": "postReward",
      "outputs": [],
      "stateMutability": "nonpayable",
      "type": "function"
    },
    {
      "inputs": [],
      "name": "posterFee",
      "outputs": [
        {
          "internalType": "uint256",
          "name": "",
          "type": "uint256"
        }
      ],
      "stateMutability": "view",
      "type": "function"
    },
    {
      "inputs": [
        {
          "internalType": "bytes32",
          "name": "",
          "type": "bytes32"
        }
      ],
      "name": "rewardLeft",
      "outputs": [
        {
          "internalType": "uint256",
          "name": "",
          "type": "uint256"
        }
      ],
      "stateMutability": "view",
      "type": "function"
    },
    {
      "inputs": [
        {
          "internalType": "bytes32",
          "name": "",
          "type": "bytes32"
        }
      ],
      "name": "rewardPoster",
      "outputs": [
        {
          "internalType": "address",
          "name": "",
          "type": "address"
        }
      ],
      "stateMutability": "view",
      "type": "function"
    },
    {
      "inputs": [],
      "name": "rewardToken",
      "outputs": [
        {
          "internalType": "contract IERC20",
          "name": "",
          "type": "address"
        }
      ],
      "stateMutability": "view",
      "type": "function"
    },
    {
      "inputs": [],
      "name": "safe",
      "outputs": [
        {
          "internalType": "address",
          "name": "",
          "type": "address"
        }
      ],
      "stateMutability": "view",
      "type": "function"
    },
    {
      "inputs": [
        {
          "internalType": "address",
          "name": "_safe",
          "type": "address"
        },
        {
          "internalType": "uint256",
          "name": "_posterFee",
          "type": "uint256"
        },
        {
          "internalType": "address",
          "name": "_rewardToken",
          "type": "address"
        }
      ],
      "name": "setup",
      "outputs": [],
      "stateMutability": "nonpayable",
      "type": "function"
    },
    {
      "inputs": [],
      "name": "totalReward",
      "outputs": [
        {
          "internalType": "uint256",
          "name": "",
          "type": "uint256"
        }
      ],
      "stateMutability": "view",
      "type": "function"
    },
    {
      "inputs": [
        {
          "internalType": "uint256",
          "name": "newFee",
          "type": "uint256"
        }
      ],
      "name": "updatePosterFee",
      "outputs": [],
      "stateMutability": "nonpayable",
      "type": "function"
    }
  ],
  "bytecode": "0x6080604052348015600f57600080fd5b506001600055610f22806100246000396000f3fe6080604052600436106100a75760003560e01c8063750142e611610064578063750142e6146101b557806375cbd82d146101cb578063b19050bd14610201578063eb630dd314610221578063f00e568614610241578063f7c618c11461026157600080fd5b8063186f0354146100ac5780632d57e177146100e9578063408422bc146101345780634a2179d21461015857806363e6a87c146101735780636feb232a14610188575b600080fd5b3480156100b857600080fd5b506005546100cc906001600160a01b031681565b6040516001600160a01b0390911681526020015b60405180910390f35b3480156100f557600080fd5b50610124610104366004610d64565b600360209081526000928352604080842090915290825290205460ff1681565b60405190151581526020016100e0565b34801561014057600080fd5b5061014a60065481565b6040519081526020016100e0565b34801561016457600080fd5b5061014a662386f26fc1000081565b610186610181366004610da2565b610281565b005b34801561019457600080fd5b5061014a6101a3366004610e47565b60026020526000908152604090205481565b3480156101c157600080fd5b5061014a60045481565b3480156101d757600080fd5b506100cc6101e6366004610e47565b6001602052600090815260409020546001600160a01b031681565b34801561020d57600080fd5b5061018661021c366004610e47565b610704565b34801561022d57600080fd5b5061018661023c366004610d64565b610812565b34801561024d57600080fd5b5061018661025c366004610e60565b610a4f565b34801561026d57600080fd5b506007546100cc906001600160a01b031681565b610289610bdf565b6000838152600160205260409020546001600160a01b0316806102ec5760405162461bcd60e51b815260206004820152601660248201527514995dd85c99081c9bdbdd081b9bdd081c1bdcdd195960521b60448201526064015b60405180910390fd5b8560045410156103325760405162461bcd60e51b8152602060048201526011602482015270139bdd08195b9bdd59da081c995dd85c99607a1b60448201526064016102e3565b6000848152600260205260409020548611156103895760405162461bcd60e51b8152602060048201526016602482015275139bdd08195b9bdd59da081c995dd85c99081b19599d60521b60448201526064016102e3565b604080516001600160a01b03891660208201529081018790523060608201526080810186905260009060a00160408051601f198184030181528282528051602091820120908301520160408051601f19818403018152918152815160209283012060008881526003845282812082825290935291205490915060ff161561044b5760405162461bcd60e51b815260206004820152601660248201527514995dd85c9908185b1c9958591e4818db185a5b595960521b60448201526064016102e3565b61048b848480806020026020016040519081016040528093929190818152602001838360200280828437600092019190915250899250859150610c099050565b6104c75760405162461bcd60e51b815260206004820152600d60248201526c24b73b30b634b210383937b7b360991b60448201526064016102e3565b6006543481111561051a5760405162461bcd60e51b815260206004820152601f60248201527f496e73756666696369656e74207061796d656e7420666f7220706f737465720060448201526064016102e3565b60405134829003906000906001600160a01b0386169084908381818185875af1925050503d806000811461056a576040519150601f19603f3d011682016040523d82523d6000602084013e61056f565b606091505b50509050806105c05760405162461bcd60e51b815260206004820152601d60248201527f506f7374657220726577617264207472616e73666572206661696c656400000060448201526064016102e3565b811561065057604051600090339084908381818185875af1925050503d8060008114610608576040519150601f19603f3d011682016040523d82523d6000602084013e61060d565b606091505b505090508061064e5760405162461bcd60e51b815260206004820152600d60248201526c1499599d5b990819985a5b1959609a1b60448201526064016102e3565b505b60008881526003602090815260408083208784528252808320805460ff19166001179055600480548e900390558a83526002909152902080548b900390556007546106a5906001600160a01b03168c8c610c1f565b604080516001600160a01b038d168152602081018c9052338183015290517ff80b6d248ca65e589d3f24c7ce36e2df22ba16ba4e7656aad67e114abbe971d29181900360600190a150505050506106fc6001600055565b505050505050565b6005546001600160a01b0316331461074c5760405162461bcd60e51b815260206004820152600b60248201526a139bdd08185b1b1bddd95960aa1b60448201526064016102e3565b600081116107875760405162461bcd60e51b8152602060048201526008602482015267466565207a65726f60c01b60448201526064016102e3565b662386f26fc1000081106107cc5760405162461bcd60e51b815260206004820152600c60248201526b08ccaca40e8dede40d0d2ced60a31b60448201526064016102e3565b600680549082905560408051828152602081018490527f7c7423dff6eff60ac491456a649034ee92866801bb236290a4b9190e370e895291015b60405180910390a15050565b6005546001600160a01b0316331461085a5760405162461bcd60e51b815260206004820152600b60248201526a139bdd08185b1b1bddd95960aa1b60448201526064016102e3565b6000811161089e5760405162461bcd60e51b8152602060048201526011602482015270546f74616c20616d6f756e74207a65726f60781b60448201526064016102e3565b6000828152600160205260409020546001600160a01b0316156108f45760405162461bcd60e51b815260206004820152600e60248201526d105b1c9958591e481c1bdcdd195960921b60448201526064016102e3565b806004546109029190610e9c565b6007546040516370a0823160e01b81523060048201526001600160a01b03909116906370a0823190602401602060405180830381865afa15801561094a573d6000803e3d6000fd5b505050506040513d601f19601f8201168201806040525081019061096e9190610ebd565b10156109c85760405162461bcd60e51b8152602060048201526024808201527f496e73756666696369656e7420636f6e7472616374207265776172642062616c604482015263616e636560e01b60648201526084016102e3565b600082815260016020526040812080546001600160a01b03191632179055600480548392906109f8908490610e9c565b9091555050600082815260026020908152604091829020839055815184815290810183905232918101919091527f88d468d3eafea83d2406f714eb4c2737e374f70e2f01fe43ec07e118e28d752590606001610806565b6005546001600160a01b031615610a9e5760405162461bcd60e51b8152602060048201526013602482015272105b1c9958591e481a5b9a5d1a585b1a5e9959606a1b60448201526064016102e3565b6001600160a01b038316610ae35760405162461bcd60e51b815260206004820152600c60248201526b5a45524f204144445245535360a01b60448201526064016102e3565b6001600160a01b038116610b285760405162461bcd60e51b815260206004820152600c60248201526b5a45524f204144445245535360a01b60448201526064016102e3565b60008211610b635760405162461bcd60e51b8152602060048201526008602482015267466565207a65726f60c01b60448201526064016102e3565b662386f26fc100008210610ba85760405162461bcd60e51b815260206004820152600c60248201526b08ccaca40e8dede40d0d2ced60a31b60448201526064016102e3565b600691909155600780546001600160a01b039283166001600160a01b03199182161790915560058054939092169216919091179055565b600260005403610c0257604051633ee5aeb560e01b815260040160405180910390fd5b6002600055565b600082610c168584610c76565b14949350505050565b604080516001600160a01b038416602482015260448082018490528251808303909101815260649091019091526020810180516001600160e01b031663a9059cbb60e01b179052610c71908490610cbb565b505050565b600081815b8451811015610cb157610ca782868381518110610c9a57610c9a610ed6565b6020026020010151610d32565b9150600101610c7b565b5090505b92915050565b600080602060008451602086016000885af180610cde576040513d6000823e3d81fd5b50506000513d91508115610cf6578060011415610d03565b6001600160a01b0384163b155b15610d2c57604051635274afe760e01b81526001600160a01b03851660048201526024016102e3565b50505050565b6000818310610d4e576000828152602084905260409020610d5d565b60008381526020839052604090205b9392505050565b60008060408385031215610d7757600080fd5b50508035926020909101359150565b80356001600160a01b0381168114610d9d57600080fd5b919050565b60008060008060008060a08789031215610dbb57600080fd5b610dc487610d86565b9550602087013594506040870135935060608701359250608087013567ffffffffffffffff811115610df557600080fd5b8701601f81018913610e0657600080fd5b803567ffffffffffffffff811115610e1d57600080fd5b8960208260051b8401011115610e3257600080fd5b60208201935080925050509295509295509295565b600060208284031215610e5957600080fd5b5035919050565b600080600060608486031215610e7557600080fd5b610e7e84610d86565b925060208401359150610e9360408501610d86565b90509250925092565b80820180821115610cb557634e487b7160e01b600052601160045260246000fd5b600060208284031215610ecf57600080fd5b5051919050565b634e487b7160e01b600052603260045260246000fdfea264697066735822122006eb589066190168af5c587233c6cb1dba6b7e42d33692314be56bdffdae88f064736f6c634300081b0033",
  "linkReferences": {},
  "deployedLinkReferences": {}
}