{
  "_format": "hh-sol-artifact-1",
  "contractName": "KwilMockToken",
  "sourceName": "contracts/KwilMockToken.sol",
  "abi": [
    {
      "inputs": [
        {
          "internalType": "address",
          "name": "initialOwner",
          "type": "address"
        }
      ],
      "stateMutability": "nonpayable",
      "type": "constructor"
    },
    {
      "inputs": [],
      "name": "ECDSAInvalidSignature",
      "type": "error"
    },
    {
      "inputs": [
        {
          "internalType": "uint256",
          "name": "length",
          "type": "uint256"
        }
      ],
      "name": "ECDSAInvalidSignatureLength",
      "type": "error"
    },
    {
      "inputs": [
        {
          "internalType": "bytes32",
          "name": "s",
          "type": "bytes32"
        }
      ],
      "name": "ECDSAInvalidSignatureS",
      "type": "error"
    },
    {
      "inputs": [
        {
          "internalType": "address",
          "name": "spender",
          "type": "address"
        },
        {
          "internalType": "uint256",
          "name": "allowance",
          "type": "uint256"
        },
        {
          "internalType": "uint256",
          "name": "needed",
          "type": "uint256"
        }
      ],
      "name": "ERC20InsufficientAllowance",
      "type": "error"
    },
    {
      "inputs": [
        {
          "internalType": "address",
          "name": "sender",
          "type": "address"
        },
        {
          "internalType": "uint256",
          "name": "balance",
          "type": "uint256"
        },
        {
          "internalType": "uint256",
          "name": "needed",
          "type": "uint256"
        }
      ],
      "name": "ERC20InsufficientBalance",
      "type": "error"
    },
    {
      "inputs": [
        {
          "internalType": "address",
          "name": "approver",
          "type": "address"
        }
      ],
      "name": "ERC20InvalidApprover",
      "type": "error"
    },
    {
      "inputs": [
        {
          "internalType": "address",
          "name": "receiver",
          "type": "address"
        }
      ],
      "name": "ERC20InvalidReceiver",
      "type": "error"
    },
    {
      "inputs": [
        {
          "internalType": "address",
          "name": "sender",
          "type": "address"
        }
      ],
      "name": "ERC20InvalidSender",
      "type": "error"
    },
    {
      "inputs": [
        {
          "internalType": "address",
          "name": "spender",
          "type": "address"
        }
      ],
      "name": "ERC20InvalidSpender",
      "type": "error"
    },
    {
      "inputs": [
        {
          "internalType": "uint256",
          "name": "deadline",
          "type": "uint256"
        }
      ],
      "name": "ERC2612ExpiredSignature",
      "type": "error"
    },
    {
      "inputs": [
        {
          "internalType": "address",
          "name": "signer",
          "type": "address"
        },
        {
          "internalType": "address",
          "name": "owner",
          "type": "address"
        }
      ],
      "name": "ERC2612InvalidSigner",
      "type": "error"
    },
    {
      "inputs": [
        {
          "internalType": "address",
          "name": "account",
          "type": "address"
        },
        {
          "internalType": "uint256",
          "name": "currentNonce",
          "type": "uint256"
        }
      ],
      "name": "InvalidAccountNonce",
      "type": "error"
    },
    {
      "inputs": [],
      "name": "InvalidShortString",
      "type": "error"
    },
    {
      "inputs": [
        {
          "internalType": "address",
          "name": "owner",
          "type": "address"
        }
      ],
      "name": "OwnableInvalidOwner",
      "type": "error"
    },
    {
      "inputs": [
        {
          "internalType": "address",
          "name": "account",
          "type": "address"
        }
      ],
      "name": "OwnableUnauthorizedAccount",
      "type": "error"
    },
    {
      "inputs": [
        {
          "internalType": "string",
          "name": "str",
          "type": "string"
        }
      ],
      "name": "StringTooLong",
      "type": "error"
    },
    {
      "anonymous": false,
      "inputs": [
        {
          "indexed": true,
          "internalType": "address",
          "name": "owner",
          "type": "address"
        },
        {
          "indexed": true,
          "internalType": "address",
          "name": "spender",
          "type": "address"
        },
        {
          "indexed": false,
          "internalType": "uint256",
          "name": "value",
          "type": "uint256"
        }
      ],
      "name": "Approval",
      "type": "event"
    },
    {
      "anonymous": false,
      "inputs": [],
      "name": "EIP712DomainChanged",
      "type": "event"
    },
    {
      "anonymous": false,
      "inputs": [
        {
          "indexed": true,
          "internalType": "address",
          "name": "previousOwner",
          "type": "address"
        },
        {
          "indexed": true,
          "internalType": "address",
          "name": "newOwner",
          "type": "address"
        }
      ],
      "name": "OwnershipTransferred",
      "type": "event"
    },
    {
      "anonymous": false,
      "inputs": [
        {
          "indexed": true,
          "internalType": "address",
          "name": "from",
          "type": "address"
        },
        {
          "indexed": true,
          "internalType": "address",
          "name": "to",
          "type": "address"
        },
        {
          "indexed": false,
          "internalType": "uint256",
          "name": "value",
          "type": "uint256"
        }
      ],
      "name": "Transfer",
      "type": "event"
    },
    {
      "inputs": [],
      "name": "DOMAIN_SEPARATOR",
      "outputs": [
        {
          "internalType": "bytes32",
          "name": "",
          "type": "bytes32"
        }
      ],
      "stateMutability": "view",
      "type": "function"
    },
    {
      "inputs": [
        {
          "internalType": "address",
          "name": "owner",
          "type": "address"
        },
        {
          "internalType": "address",
          "name": "spender",
          "type": "address"
        }
      ],
      "name": "allowance",
      "outputs": [
        {
          "internalType": "uint256",
          "name": "",
          "type": "uint256"
        }
      ],
      "stateMutability": "view",
      "type": "function"
    },
    {
      "inputs": [
        {
          "internalType": "address",
          "name": "spender",
          "type": "address"
        },
        {
          "internalType": "uint256",
          "name": "value",
          "type": "uint256"
        }
      ],
      "name": "approve",
      "outputs": [
        {
          "internalType": "bool",
          "name": "",
          "type": "bool"
        }
      ],
      "stateMutability": "nonpayable",
      "type": "function"
    },
    {
      "inputs": [
        {
          "internalType": "address",
          "name": "account",
          "type": "address"
        }
      ],
      "name": "balanceOf",
      "outputs": [
        {
          "internalType": "uint256",
          "name": "",
          "type": "uint256"
        }
      ],
      "stateMutability": "view",
      "type": "function"
    },
    {
      "inputs": [],
      "name": "decimals",
      "outputs": [
        {
          "internalType": "uint8",
          "name": "",
          "type": "uint8"
        }
      ],
      "stateMutability": "view",
      "type": "function"
    },
    {
      "inputs": [],
      "name": "eip712Domain",
      "outputs": [
        {
          "internalType": "bytes1",
          "name": "fields",
          "type": "bytes1"
        },
        {
          "internalType": "string",
          "name": "name",
          "type": "string"
        },
        {
          "internalType": "string",
          "name": "version",
          "type": "string"
        },
        {
          "internalType": "uint256",
          "name": "chainId",
          "type": "uint256"
        },
        {
          "internalType": "address",
          "name": "verifyingContract",
          "type": "address"
        },
        {
          "internalType": "bytes32",
          "name": "salt",
          "type": "bytes32"
        },
        {
          "internalType": "uint256[]",
          "name": "extensions",
          "type": "uint256[]"
        }
      ],
      "stateMutability": "view",
      "type": "function"
    },
    {
      "inputs": [],
      "name": "name",
      "outputs": [
        {
          "internalType": "string",
          "name": "",
          "type": "string"
        }
      ],
      "stateMutability": "view",
      "type": "function"
    },
    {
      "inputs": [
        {
          "internalType": "address",
          "name": "owner",
          "type": "address"
        }
      ],
      "name": "nonces",
      "outputs": [
        {
          "internalType": "uint256",
          "name": "",
          "type": "uint256"
        }
      ],
      "stateMutability": "view",
      "type": "function"
    },
    {
      "inputs": [],
      "name": "owner",
      "outputs": [
        {
          "internalType": "address",
          "name": "",
          "type": "address"
        }
      ],
      "stateMutability": "view",
      "type": "function"
    },
    {
      "inputs": [
        {
          "internalType": "address",
          "name": "owner",
          "type": "address"
        },
        {
          "internalType": "address",
          "name": "spender",
          "type": "address"
        },
        {
          "internalType": "uint256",
          "name": "value",
          "type": "uint256"
        },
        {
          "internalType": "uint256",
          "name": "deadline",
          "type": "uint256"
        },
        {
          "internalType": "uint8",
          "name": "v",
          "type": "uint8"
        },
        {
          "internalType": "bytes32",
          "name": "r",
          "type": "bytes32"
        },
        {
          "internalType": "bytes32",
          "name": "s",
          "type": "bytes32"
        }
      ],
      "name": "permit",
      "outputs": [],
      "stateMutability": "nonpayable",
      "type": "function"
    },
    {
      "inputs": [],
      "name": "renounceOwnership",
      "outputs": [],
      "stateMutability": "nonpayable",
      "type": "function"
    },
    {
      "inputs": [],
      "name": "symbol",
      "outputs": [
        {
          "internalType": "string",
          "name": "",
          "type": "string"
        }
      ],
      "stateMutability": "view",
      "type": "function"
    },
    {
      "inputs": [],
      "name": "totalSupply",
      "outputs": [
        {
          "internalType": "uint256",
          "name": "",
          "type": "uint256"
        }
      ],
      "stateMutability": "view",
      "type": "function"
    },
    {
      "inputs": [
        {
          "internalType": "address",
          "name": "to",
          "type": "address"
        },
        {
          "internalType": "uint256",
          "name": "value",
          "type": "uint256"
        }
      ],
      "name": "transfer",
      "outputs": [
        {
          "internalType": "bool",
          "name": "",
          "type": "bool"
        }
      ],
      "stateMutability": "nonpayable",
      "type": "function"
    },
    {
      "inputs": [
        {
          "internalType": "address",
          "name": "from",
          "type": "address"
        },
        {
          "internalType": "address",
          "name": "to",
          "type": "address"
        },
        {
          "internalType": "uint256",
          "name": "value",
          "type": "uint256"
        }
      ],
      "name": "transferFrom",
      "outputs": [
        {
          "internalType": "bool",
          "name": "",
          "type": "bool"
        }
      ],
      "stateMutability": "nonpayable",
      "type": "function"
    },
    {
      "inputs": [
        {
          "internalType": "address",
          "name": "newOwner",
          "type": "address"
        }
      ],
      "name": "transferOwnership",
      "outputs": [],
      "stateMutability": "nonpayable",
      "type": "function"
    }
  ],
  "bytecode": "0x61016060405234801561001157600080fd5b506040516117b13803806117b183398101604081905261003091610402565b806040518060400160405280600d81526020016c25bbb4b626b7b1b5aa37b5b2b760991b81525080604051806040016040528060018152602001603160f81b8152506040518060400160405280600d81526020016c25bbb4b626b7b1b5aa37b5b2b760991b8152506040518060400160405280600381526020016212d35560ea1b81525081600390816100c391906104d1565b5060046100d082826104d1565b506100e0915083905060056101db565b610120526100ef8160066101db565b61014052815160208084019190912060e052815190820120610100524660a05261017c60e05161010051604080517f8b73c3c69bb8fe3d512ecc4cf759cc79239f7b179b0ffacaa9a75d522b39400f60208201529081019290925260608201524660808201523060a082015260009060c00160405160208183030381529060405280519060200120905090565b60805250503060c052506001600160a01b0381166101b557604051631e4fbdf760e01b8152600060048201526024015b60405180910390fd5b6101be8161020e565b506101d5336101d0601261271061068c565b610260565b50610720565b60006020835110156101f7576101f08361029a565b9050610208565b8161020284826104d1565b5060ff90505b92915050565b600880546001600160a01b038381166001600160a01b0319831681179093556040519116919082907f8be0079c531659141344cd1fd0a4f28419497f9722a3daafe3b4186f6b6457e090600090a35050565b6001600160a01b03821661028a5760405163ec442f0560e01b8152600060048201526024016101ac565b610296600083836102d8565b5050565b600080829050601f815111156102c5578260405163305a27a960e01b81526004016101ac919061069b565b80516102d0826106e9565b179392505050565b6001600160a01b0383166103035780600260008282546102f8919061070d565b909155506103759050565b6001600160a01b038316600090815260208190526040902054818110156103565760405163391434e360e21b81526001600160a01b038516600482015260248101829052604481018390526064016101ac565b6001600160a01b03841660009081526020819052604090209082900390555b6001600160a01b038216610391576002805482900390556103b0565b6001600160a01b03821660009081526020819052604090208054820190555b816001600160a01b0316836001600160a01b03167fddf252ad1be2c89b69c2b068fc378daa952ba7f163c4a11628f55a4df523b3ef836040516103f591815260200190565b60405180910390a3505050565b60006020828403121561041457600080fd5b81516001600160a01b038116811461042b57600080fd5b9392505050565b634e487b7160e01b600052604160045260246000fd5b600181811c9082168061045c57607f821691505b60208210810361047c57634e487b7160e01b600052602260045260246000fd5b50919050565b601f8211156104cc57806000526020600020601f840160051c810160208510156104a95750805b601f840160051c820191505b818110156104c957600081556001016104b5565b50505b505050565b81516001600160401b038111156104ea576104ea610432565b6104fe816104f88454610448565b84610482565b6020601f821160018114610532576000831561051a5750848201515b600019600385901b1c1916600184901b1784556104c9565b600084815260208120601f198516915b828110156105625787850151825560209485019460019092019101610542565b50848210156105805786840151600019600387901b60f8161c191681555b50505050600190811b01905550565b634e487b7160e01b600052601160045260246000fd5b6001815b60018411156105e0578085048111156105c4576105c461058f565b60018416156105d257908102905b60019390931c9280026105a9565b935093915050565b6000826105f757506001610208565b8161060457506000610208565b816001811461061a576002811461062457610640565b6001915050610208565b60ff8411156106355761063561058f565b50506001821b610208565b5060208310610133831016604e8410600b8410161715610663575081810a610208565b61067060001984846105a5565b80600019048211156106845761068461058f565b029392505050565b600061042b60ff8416836105e8565b602081526000825180602084015260005b818110156106c957602081860181015160408684010152016106ac565b506000604082850101526040601f19601f83011684010191505092915050565b8051602080830151919081101561047c5760001960209190910360031b1b16919050565b808201808211156102085761020861058f565b60805160a05160c05160e05161010051610120516101405161103761077a600039600061083601526000610809015260006107320152600061070a015260006106650152600061068f015260006106b901526110376000f3fe608060405234801561001057600080fd5b50600436106101005760003560e01c80637ecebe0011610097578063a9059cbb11610066578063a9059cbb14610206578063d505accf14610219578063dd62ed3e1461022c578063f2fde38b1461026557600080fd5b80637ecebe00146101b557806384b0196e146101c85780638da5cb5b146101e357806395d89b41146101fe57600080fd5b8063313ce567116100d3578063313ce5671461016b5780633644e5151461017a57806370a0823114610182578063715018a6146101ab57600080fd5b806306fdde0314610105578063095ea7b31461012357806318160ddd1461014657806323b872dd14610158575b600080fd5b61010d610278565b60405161011a9190610d9a565b60405180910390f35b610136610131366004610dd0565b61030a565b604051901515815260200161011a565b6002545b60405190815260200161011a565b610136610166366004610dfa565b610324565b6040516012815260200161011a565b61014a610348565b61014a610190366004610e37565b6001600160a01b031660009081526020819052604090205490565b6101b3610357565b005b61014a6101c3366004610e37565b61036b565b6101d0610389565b60405161011a9796959493929190610e52565b6008546040516001600160a01b03909116815260200161011a565b61010d6103cf565b610136610214366004610dd0565b6103de565b6101b3610227366004610eea565b6103ec565b61014a61023a366004610f5d565b6001600160a01b03918216600090815260016020908152604080832093909416825291909152205490565b6101b3610273366004610e37565b61052b565b60606003805461028790610f90565b80601f01602080910402602001604051908101604052809291908181526020018280546102b390610f90565b80156103005780601f106102d557610100808354040283529160200191610300565b820191906000526020600020905b8154815290600101906020018083116102e357829003601f168201915b5050505050905090565b600033610318818585610569565b60019150505b92915050565b60003361033285828561057b565b61033d8585856105f9565b506001949350505050565b6000610352610658565b905090565b61035f610783565b61036960006107b0565b565b6001600160a01b03811660009081526007602052604081205461031e565b60006060806000806000606061039d610802565b6103a561082f565b60408051600080825260208201909252600f60f81b9b939a50919850469750309650945092509050565b60606004805461028790610f90565b6000336103188185856105f9565b834211156104155760405163313c898160e11b8152600481018590526024015b60405180910390fd5b60007f6e71edae12b1b97f4d1f60370fef10105fa2faae0126114a169c64845d6126c98888886104628c6001600160a01b0316600090815260076020526040902080546001810190915590565b6040805160208101969096526001600160a01b0394851690860152929091166060840152608083015260a082015260c0810186905260e00160405160208183030381529060405280519060200120905060006104bd8261085c565b905060006104cd82878787610889565b9050896001600160a01b0316816001600160a01b031614610514576040516325c0072360e11b81526001600160a01b0380831660048301528b16602482015260440161040c565b61051f8a8a8a610569565b50505050505050505050565b610533610783565b6001600160a01b03811661055d57604051631e4fbdf760e01b81526000600482015260240161040c565b610566816107b0565b50565b61057683838360016108b7565b505050565b6001600160a01b0383811660009081526001602090815260408083209386168352929052205460001981146105f357818110156105e457604051637dc7a0d960e11b81526001600160a01b0384166004820152602481018290526044810183905260640161040c565b6105f3848484840360006108b7565b50505050565b6001600160a01b03831661062357604051634b637e8f60e11b81526000600482015260240161040c565b6001600160a01b03821661064d5760405163ec442f0560e01b81526000600482015260240161040c565b61057683838361098c565b6000306001600160a01b037f0000000000000000000000000000000000000000000000000000000000000000161480156106b157507f000000000000000000000000000000000000000000000000000000000000000046145b156106db57507f000000000000000000000000000000000000000000000000000000000000000090565b610352604080517f8b73c3c69bb8fe3d512ecc4cf759cc79239f7b179b0ffacaa9a75d522b39400f60208201527f0000000000000000000000000000000000000000000000000000000000000000918101919091527f000000000000000000000000000000000000000000000000000000000000000060608201524660808201523060a082015260009060c00160405160208183030381529060405280519060200120905090565b6008546001600160a01b031633146103695760405163118cdaa760e01b815233600482015260240161040c565b600880546001600160a01b038381166001600160a01b0319831681179093556040519116919082907f8be0079c531659141344cd1fd0a4f28419497f9722a3daafe3b4186f6b6457e090600090a35050565b60606103527f00000000000000000000000000000000000000000000000000000000000000006005610ab6565b60606103527f00000000000000000000000000000000000000000000000000000000000000006006610ab6565b600061031e610869610658565b8360405161190160f01b8152600281019290925260228201526042902090565b60008060008061089b88888888610b61565b9250925092506108ab8282610c30565b50909695505050505050565b6001600160a01b0384166108e15760405163e602df0560e01b81526000600482015260240161040c565b6001600160a01b03831661090b57604051634a1406b160e11b81526000600482015260240161040c565b6001600160a01b03808516600090815260016020908152604080832093871683529290522082905580156105f357826001600160a01b0316846001600160a01b03167f8c5be1e5ebec7d5bd14f71427d1e84f3dd0314c0f7b2291e5b200ac8c7c3b9258460405161097e91815260200190565b60405180910390a350505050565b6001600160a01b0383166109b75780600260008282546109ac9190610fca565b90915550610a299050565b6001600160a01b03831660009081526020819052604090205481811015610a0a5760405163391434e360e21b81526001600160a01b0385166004820152602481018290526044810183905260640161040c565b6001600160a01b03841660009081526020819052604090209082900390555b6001600160a01b038216610a4557600280548290039055610a64565b6001600160a01b03821660009081526020819052604090208054820190555b816001600160a01b0316836001600160a01b03167fddf252ad1be2c89b69c2b068fc378daa952ba7f163c4a11628f55a4df523b3ef83604051610aa991815260200190565b60405180910390a3505050565b606060ff8314610ad057610ac983610ced565b905061031e565b818054610adc90610f90565b80601f0160208091040260200160405190810160405280929190818152602001828054610b0890610f90565b8015610b555780601f10610b2a57610100808354040283529160200191610b55565b820191906000526020600020905b815481529060010190602001808311610b3857829003601f168201915b5050505050905061031e565b600080807f7fffffffffffffffffffffffffffffff5d576e7357a4501ddfe92f46681b20a0841115610b9c5750600091506003905082610c26565b604080516000808252602082018084528a905260ff891692820192909252606081018790526080810186905260019060a0016020604051602081039080840390855afa158015610bf0573d6000803e3d6000fd5b5050604051601f1901519150506001600160a01b038116610c1c57506000925060019150829050610c26565b9250600091508190505b9450945094915050565b6000826003811115610c4457610c44610feb565b03610c4d575050565b6001826003811115610c6157610c61610feb565b03610c7f5760405163f645eedf60e01b815260040160405180910390fd5b6002826003811115610c9357610c93610feb565b03610cb45760405163fce698f760e01b81526004810182905260240161040c565b6003826003811115610cc857610cc8610feb565b03610ce9576040516335e2f38360e21b81526004810182905260240161040c565b5050565b60606000610cfa83610d2c565b604080516020808252818301909252919250600091906020820181803683375050509182525060208101929092525090565b600060ff8216601f81111561031e57604051632cd44ac360e21b815260040160405180910390fd5b6000815180845260005b81811015610d7a57602081850181015186830182015201610d5e565b506000602082860101526020601f19601f83011685010191505092915050565b602081526000610dad6020830184610d54565b9392505050565b80356001600160a01b0381168114610dcb57600080fd5b919050565b60008060408385031215610de357600080fd5b610dec83610db4565b946020939093013593505050565b600080600060608486031215610e0f57600080fd5b610e1884610db4565b9250610e2660208501610db4565b929592945050506040919091013590565b600060208284031215610e4957600080fd5b610dad82610db4565b60ff60f81b8816815260e060208201526000610e7160e0830189610d54565b8281036040840152610e838189610d54565b606084018890526001600160a01b038716608085015260a0840186905283810360c08501528451808252602080870193509091019060005b81811015610ed9578351835260209384019390920191600101610ebb565b50909b9a5050505050505050505050565b600080600080600080600060e0888a031215610f0557600080fd5b610f0e88610db4565b9650610f1c60208901610db4565b95506040880135945060608801359350608088013560ff81168114610f4057600080fd5b9699959850939692959460a0840135945060c09093013592915050565b60008060408385031215610f7057600080fd5b610f7983610db4565b9150610f8760208401610db4565b90509250929050565b600181811c90821680610fa457607f821691505b602082108103610fc457634e487b7160e01b600052602260045260246000fd5b50919050565b8082018082111561031e57634e487b7160e01b600052601160045260246000fd5b634e487b7160e01b600052602160045260246000fdfea26469706673582212206c6620f968561a02e4137709a28ee6428e98b7c38410955f0bd360b3da3e710e64736f6c634300081b0033",
  "linkReferences": {},
  "deployedLinkReferences": {}
}