{
  "_format": "hh-sol-artifact-1",
  "contractName": "RewardDistributor",
  "sourceName": "contracts/RewardDistributor.sol",
  "abi": [
    {
      "inputs": [],
      "name": "ReentrancyGuardReentrantCall",
      "type": "error"
    },
    {
      "inputs": [
        {
          "internalType": "address",
          "name": "token",
          "type": "address"
        }
      ],
      "name": "SafeERC20FailedOperation",
      "type": "error"
    },
    {
      "anonymous": false,
      "inputs": [
        {
          "indexed": true,
          "internalType": "address",
          "name": "depositor",
          "type": "address"
        },
        {
          "indexed": false,
          "internalType": "uint256",
          "name": "amount",
          "type": "uint256"
        }
      ],
      "name": "Credit",
      "type": "event"
    },
    {
      "anonymous": false,
      "inputs": [
        {
          "indexed": true,
          "internalType": "address",
          "name": "depositor",
          "type": "address"
        },
        {
          "indexed": false,
          "internalType": "uint256",
          "name": "amount",
          "type": "uint256"
        }
      ],
      "name": "Deposit",
      "type": "event"
    },
    {
      "anonymous": false,
      "inputs": [
        {
          "indexed": false,
          "internalType": "uint256",
          "name": "oldFee",
          "type": "uint256"
        },
        {
          "indexed": false,
          "internalType": "uint256",
          "name": "newFee",
          "type": "uint256"
        }
      ],
      "name": "PosterFeeUpdated",
      "type": "event"
    },
    {
      "anonymous": false,
      "inputs": [
        {
          "indexed": false,
          "internalType": "address",
          "name": "recipient",
          "type": "address"
        },
        {
          "indexed": false,
          "internalType": "uint256",
          "name": "amount",
          "type": "uint256"
        },
        {
          "indexed": false,
          "internalType": "address",
          "name": "claimer",
          "type": "address"
        }
      ],
      "name": "RewardClaimed",
      "type": "event"
    },
    {
      "anonymous": false,
      "inputs": [
        {
          "indexed": false,
          "internalType": "bytes32",
          "name": "root",
          "type": "bytes32"
        },
        {
          "indexed": false,
          "internalType": "uint256",
          "name": "amount",
          "type": "uint256"
        },
        {
          "indexed": false,
          "internalType": "address",
          "name": "poster",
          "type": "address"
        }
      ],
      "name": "RewardPosted",
      "type": "event"
    },
    {
      "inputs": [
        {
          "internalType": "address",
          "name": "recipient",
          "type": "address"
        },
        {
          "internalType": "uint256",
          "name": "amount",
          "type": "uint256"
        },
        {
          "internalType": "bytes32",
          "name": "kwilBlockHash",
          "type": "bytes32"
        },
        {
          "internalType": "bytes32",
          "name": "rewardRoot",
          "type": "bytes32"
        },
        {
          "internalType": "bytes32[]",
          "name": "proofs",
          "type": "bytes32[]"
        }
      ],
      "name": "claimReward",
      "outputs": [],
      "stateMutability": "payable",
      "type": "function"
    },
    {
      "inputs": [
        {
          "internalType": "uint256",
          "name": "amount",
          "type": "uint256"
        }
      ],
      "name": "deposit",
      "outputs": [],
      "stateMutability": "nonpayable",
      "type": "function"
    },
    {
      "inputs": [
        {
          "internalType": "address",
          "name": "from",
          "type": "address"
        },
        {
          "internalType": "uint256",
          "name": "amount",
          "type": "uint256"
        }
      ],
      "name": "depositFrom",
      "outputs": [],
      "stateMutability": "nonpayable",
      "type": "function"
    },
    {
      "inputs": [
        {
          "internalType": "bytes32",
          "name": "",
          "type": "bytes32"
        },
        {
          "internalType": "bytes32",
          "name": "",
          "type": "bytes32"
        }
      ],
      "name": "isLeafRewardClaimed",
      "outputs": [
        {
          "internalType": "bool",
          "name": "",
          "type": "bool"
        }
      ],
      "stateMutability": "view",
      "type": "function"
    },
    {
      "inputs": [],
      "name": "maxPosterFee",
      "outputs": [
        {
          "internalType": "uint256",
          "name": "",
          "type": "uint256"
        }
      ],
      "stateMutability": "view",
      "type": "function"
    },
    {
      "inputs": [
        {
          "internalType": "bytes32",
          "name": "root",
          "type": "bytes32"
        },
        {
          "internalType": "uint256",
          "name": "amount",
          "type": "uint256"
        }
      ],
      "name": "postReward",
      "outputs": [],
      "stateMutability": "nonpayable",
      "type": "function"
    },
    {
      "inputs": [],
      "name": "posterFee",
      "outputs": [
        {
          "internalType": "uint256",
          "name": "",
          "type": "uint256"
        }
      ],
      "stateMutability": "view",
      "type": "function"
    },
    {
      "inputs": [
        {
          "internalType": "bytes32",
          "name": "",
          "type": "bytes32"
        }
      ],
      "name": "rewardLeft",
      "outputs": [
        {
          "internalType": "uint256",
          "name": "",
          "type": "uint256"
        }
      ],
      "stateMutability": "view",
      "type": "function"
    },
    {
      "inputs": [
        {
          "internalType": "bytes32",
          "name": "",
          "type": "bytes32"
        }
      ],
      "name": "rewardPoster",
      "outputs": [
        {
          "internalType": "address",
          "name": "",
          "type": "address"
        }
      ],
      "stateMutability": "view",
      "type": "function"
    },
    {
      "inputs": [],
      "name": "rewardToken",
      "outputs": [
        {
          "internalType": "contract IERC20",
          "name": "",
          "type": "address"
        }
      ],
      "stateMutability": "view",
      "type": "function"
    },
    {
      "inputs": [],
      "name": "safe",
      "outputs": [
        {
          "internalType": "address",
          "name": "",
          "type": "address"
        }
      ],
      "stateMutability": "view",
      "type": "function"
    },
    {
      "inputs": [
        {
          "internalType": "address",
          "name": "_safe",
          "type": "address"
        },
        {
          "internalType": "uint256",
          "name": "_posterFee",
          "type": "uint256"
        },
        {
          "internalType": "address",
          "name": "_rewardToken",
          "type": "address"
        }
      ],
      "name": "setup",
      "outputs": [],
      "stateMutability": "nonpayable",
      "type": "function"
    },
    {
      "inputs": [],
      "name": "totalReward",
      "outputs": [
        {
          "internalType": "uint256",
          "name": "",
          "type": "uint256"
        }
      ],
      "stateMutability": "view",
      "type": "function"
    },
    {
      "inputs": [
        {
          "internalType": "uint256",
          "name": "newFee",
          "type": "uint256"
        }
      ],
      "name": "updatePosterFee",
      "outputs": [],
      "stateMutability": "nonpayable",
      "type": "function"
    }
  ],
  "bytecode": "0x6080604052348015600f57600080fd5b5060016000556112d9806100246000396000f3fe6080604052600436106100dd5760003560e01c8063750142e61161007f578063b6b55f2511610059578063b6b55f2514610277578063eb630dd314610297578063f00e5686146102b7578063f7c618c1146102d757600080fd5b8063750142e61461020b57806375cbd82d14610221578063b19050bd1461025757600080fd5b8063408422bc116100bb578063408422bc1461018c5780634a2179d2146101b057806363e6a87c146101cb5780636feb232a146101de57600080fd5b806315cc36f2146100e2578063186f0354146101045780632d57e17714610141575b600080fd5b3480156100ee57600080fd5b506101026100fd3660046110e8565b6102f7565b005b34801561011057600080fd5b50600554610124906001600160a01b031681565b6040516001600160a01b0390911681526020015b60405180910390f35b34801561014d57600080fd5b5061017c61015c366004611112565b600360209081526000928352604080842090915290825290205460ff1681565b6040519015158152602001610138565b34801561019857600080fd5b506101a260065481565b604051908152602001610138565b3480156101bc57600080fd5b506101a2662386f26fc1000081565b6101026101d9366004611134565b6104bc565b3480156101ea57600080fd5b506101a26101f93660046111d9565b60026020526000908152604090205481565b34801561021757600080fd5b506101a260045481565b34801561022d57600080fd5b5061012461023c3660046111d9565b6001602052600090815260409020546001600160a01b031681565b34801561026357600080fd5b506101026102723660046111d9565b61093a565b34801561028357600080fd5b506101026102923660046111d9565b610a2a565b3480156102a357600080fd5b506101026102b2366004611112565b610b52565b3480156102c357600080fd5b506101026102d23660046111f2565b610d71565b3480156102e357600080fd5b50600754610124906001600160a01b031681565b6005546001600160a01b0316331461032a5760405162461bcd60e51b81526004016103219061122e565b60405180910390fd5b6007546001600160a01b031661037d5760405162461bcd60e51b815260206004820152601860248201527710dbdb9d1c9858dd081b9bdd081a5b9a5d1a585b1a5e995960421b6044820152606401610321565b600081116103cd5760405162461bcd60e51b815260206004820152601d60248201527f416d6f756e74206d7573742062652067726561746572207468616e20300000006044820152606401610321565b6001600160a01b03821661041a5760405162461bcd60e51b8152602060048201526014602482015273496e76616c69642066726f6d206164647265737360601b6044820152606401610321565b600754610432906001600160a01b0316833084610f01565b816001600160a01b03167fe1fffcc4923d04b559f4d29a8bfc6cda04eb5b0d3c460751c2402c5c5cc9109c8260405161046d91815260200190565b60405180910390a2816001600160a01b03167f1bbf55d483639f8103dc4e035af71a4fbdb16c80be740fa3eef81198acefa094826040516104b091815260200190565b60405180910390a25050565b6104c4610f6e565b6000838152600160205260409020546001600160a01b0316806105225760405162461bcd60e51b815260206004820152601660248201527514995dd85c99081c9bdbdd081b9bdd081c1bdcdd195960521b6044820152606401610321565b8560045410156105685760405162461bcd60e51b8152602060048201526011602482015270139bdd08195b9bdd59da081c995dd85c99607a1b6044820152606401610321565b6000848152600260205260409020548611156105bf5760405162461bcd60e51b8152602060048201526016602482015275139bdd08195b9bdd59da081c995dd85c99081b19599d60521b6044820152606401610321565b604080516001600160a01b03891660208201529081018790523060608201526080810186905260009060a00160408051601f198184030181528282528051602091820120908301520160408051601f19818403018152918152815160209283012060008881526003845282812082825290935291205490915060ff16156106815760405162461bcd60e51b815260206004820152601660248201527514995dd85c9908185b1c9958591e4818db185a5b595960521b6044820152606401610321565b6106c1848480806020026020016040519081016040528093929190818152602001838360200280828437600092019190915250899250859150610f989050565b6106fd5760405162461bcd60e51b815260206004820152600d60248201526c24b73b30b634b210383937b7b360991b6044820152606401610321565b600654348111156107505760405162461bcd60e51b815260206004820152601f60248201527f496e73756666696369656e74207061796d656e7420666f7220706f73746572006044820152606401610321565b60405134829003906000906001600160a01b0386169084908381818185875af1925050503d80600081146107a0576040519150601f19603f3d011682016040523d82523d6000602084013e6107a5565b606091505b50509050806107f65760405162461bcd60e51b815260206004820152601d60248201527f506f7374657220726577617264207472616e73666572206661696c65640000006044820152606401610321565b811561088657604051600090339084908381818185875af1925050503d806000811461083e576040519150601f19603f3d011682016040523d82523d6000602084013e610843565b606091505b50509050806108845760405162461bcd60e51b815260206004820152600d60248201526c1499599d5b990819985a5b1959609a1b6044820152606401610321565b505b60008881526003602090815260408083208784528252808320805460ff19166001179055600480548e900390558a83526002909152902080548b900390556007546108db906001600160a01b03168c8c610fae565b604080516001600160a01b038d168152602081018c9052338183015290517ff80b6d248ca65e589d3f24c7ce36e2df22ba16ba4e7656aad67e114abbe971d29181900360600190a150505050506109326001600055565b505050505050565b6005546001600160a01b031633146109645760405162461bcd60e51b81526004016103219061122e565b6000811161099f5760405162461bcd60e51b8152602060048201526008602482015267466565207a65726f60c01b6044820152606401610321565b662386f26fc1000081106109e45760405162461bcd60e51b815260206004820152600c60248201526b08ccaca40e8dede40d0d2ced60a31b6044820152606401610321565b600680549082905560408051828152602081018490527f7c7423dff6eff60ac491456a649034ee92866801bb236290a4b9190e370e895291015b60405180910390a15050565b6007546001600160a01b0316610a7d5760405162461bcd60e51b815260206004820152601860248201527710dbdb9d1c9858dd081b9bdd081a5b9a5d1a585b1a5e995960421b6044820152606401610321565b60008111610acd5760405162461bcd60e51b815260206004820152601d60248201527f416d6f756e74206d7573742062652067726561746572207468616e20300000006044820152606401610321565b600754610ae5906001600160a01b0316333084610f01565b60405181815233907fe1fffcc4923d04b559f4d29a8bfc6cda04eb5b0d3c460751c2402c5c5cc9109c9060200160405180910390a260405181815233907f1bbf55d483639f8103dc4e035af71a4fbdb16c80be740fa3eef81198acefa0949060200160405180910390a250565b6005546001600160a01b03163314610b7c5760405162461bcd60e51b81526004016103219061122e565b60008111610bc05760405162461bcd60e51b8152602060048201526011602482015270546f74616c20616d6f756e74207a65726f60781b6044820152606401610321565b6000828152600160205260409020546001600160a01b031615610c165760405162461bcd60e51b815260206004820152600e60248201526d105b1c9958591e481c1bdcdd195960921b6044820152606401610321565b80600454610c249190611253565b6007546040516370a0823160e01b81523060048201526001600160a01b03909116906370a0823190602401602060405180830381865afa158015610c6c573d6000803e3d6000fd5b505050506040513d601f19601f82011682018060405250810190610c909190611274565b1015610cea5760405162461bcd60e51b8152602060048201526024808201527f496e73756666696369656e7420636f6e7472616374207265776172642062616c604482015263616e636560e01b6064820152608401610321565b600082815260016020526040812080546001600160a01b0319163217905560048054839290610d1a908490611253565b9091555050600082815260026020908152604091829020839055815184815290810183905232918101919091527f88d468d3eafea83d2406f714eb4c2737e374f70e2f01fe43ec07e118e28d752590606001610a1e565b6005546001600160a01b031615610dc05760405162461bcd60e51b8152602060048201526013602482015272105b1c9958591e481a5b9a5d1a585b1a5e9959606a1b6044820152606401610321565b6001600160a01b038316610e055760405162461bcd60e51b815260206004820152600c60248201526b5a45524f204144445245535360a01b6044820152606401610321565b6001600160a01b038116610e4a5760405162461bcd60e51b815260206004820152600c60248201526b5a45524f204144445245535360a01b6044820152606401610321565b60008211610e855760405162461bcd60e51b8152602060048201526008602482015267466565207a65726f60c01b6044820152606401610321565b662386f26fc100008210610eca5760405162461bcd60e51b815260206004820152600c60248201526b08ccaca40e8dede40d0d2ced60a31b6044820152606401610321565b600691909155600780546001600160a01b039283166001600160a01b03199182161790915560058054939092169216919091179055565b6040516001600160a01b038481166024830152838116604483015260648201839052610f689186918216906323b872dd906084015b604051602081830303815290604052915060e01b6020820180516001600160e01b038381831617835250505050610fe4565b50505050565b600260005403610f9157604051633ee5aeb560e01b815260040160405180910390fd5b6002600055565b600082610fa58584611055565b14949350505050565b6040516001600160a01b03838116602483015260448201839052610fdf91859182169063a9059cbb90606401610f36565b505050565b600080602060008451602086016000885af180611007576040513d6000823e3d81fd5b50506000513d9150811561101f57806001141561102c565b6001600160a01b0384163b155b15610f6857604051635274afe760e01b81526001600160a01b0385166004820152602401610321565b600081815b845181101561109057611086828683815181106110795761107961128d565b602002602001015161109a565b915060010161105a565b5090505b92915050565b60008183106110b65760008281526020849052604090206110c5565b60008381526020839052604090205b9392505050565b80356001600160a01b03811681146110e357600080fd5b919050565b600080604083850312156110fb57600080fd5b611104836110cc565b946020939093013593505050565b6000806040838503121561112557600080fd5b50508035926020909101359150565b60008060008060008060a0878903121561114d57600080fd5b611156876110cc565b9550602087013594506040870135935060608701359250608087013567ffffffffffffffff81111561118757600080fd5b8701601f8101891361119857600080fd5b803567ffffffffffffffff8111156111af57600080fd5b8960208260051b84010111156111c457600080fd5b60208201935080925050509295509295509295565b6000602082840312156111eb57600080fd5b5035919050565b60008060006060848603121561120757600080fd5b611210846110cc565b925060208401359150611225604085016110cc565b90509250925092565b6020808252600b908201526a139bdd08185b1b1bddd95960aa1b604082015260600190565b8082018082111561109457634e487b7160e01b600052601160045260246000fd5b60006020828403121561128657600080fd5b5051919050565b634e487b7160e01b600052603260045260246000fdfea2646970667358221220bd946fcd13e70bb97a638070b9e51c55914111d4266d0fdb87434801d4b5975864736f6c634300081b0033",
  "linkReferences": {},
  "deployedLinkReferences": {}
}