{
  "_format": "hh-sol-artifact-1",
  "contractName": "RewardDistributorFactory",
  "sourceName": "contracts/RewardDistributorFactory.sol",
  "abi": [
    {
      "inputs": [
        {
          "internalType": "address",
          "name": "_owner",
          "type": "address"
        },
        {
          "internalType": "address",
          "name": "_imp",
          "type": "address"
        }
      ],
      "stateMutability": "nonpayable",
      "type": "constructor"
    },
    {
      "inputs": [],
      "name": "FailedDeployment",
      "type": "error"
    },
    {
      "inputs": [
        {
          "internalType": "uint256",
          "name": "balance",
          "type": "uint256"
        },
        {
          "internalType": "uint256",
          "name": "needed",
          "type": "uint256"
        }
      ],
      "name": "InsufficientBalance",
      "type": "error"
    },
    {
      "inputs": [
        {
          "internalType": "address",
          "name": "owner",
          "type": "address"
        }
      ],
      "name": "OwnableInvalidOwner",
      "type": "error"
    },
    {
      "inputs": [
        {
          "internalType": "address",
          "name": "account",
          "type": "address"
        }
      ],
      "name": "OwnableUnauthorizedAccount",
      "type": "error"
    },
    {
      "anonymous": false,
      "inputs": [
        {
          "indexed": false,
          "internalType": "address",
          "name": "instance",
          "type": "address"
        }
      ],
      "name": "Created",
      "type": "event"
    },
    {
      "anonymous": false,
      "inputs": [
        {
          "indexed": true,
          "internalType": "address",
          "name": "previousOwner",
          "type": "address"
        },
        {
          "indexed": true,
          "internalType": "address",
          "name": "newOwner",
          "type": "address"
        }
      ],
      "name": "OwnershipTransferred",
      "type": "event"
    },
    {
      "inputs": [
        {
          "internalType": "address",
          "name": "_safe",
          "type": "address"
        },
        {
          "internalType": "uint256",
          "name": "_posterFee",
          "type": "uint256"
        },
        {
          "internalType": "address",
          "name": "_rewardToken",
          "type": "address"
        },
        {
          "internalType": "bytes32",
          "name": "salt",
          "type": "bytes32"
        }
      ],
      "name": "create",
      "outputs": [],
      "stateMutability": "nonpayable",
      "type": "function"
    },
    {
      "inputs": [],
      "name": "imp",
      "outputs": [
        {
          "internalType": "address",
          "name": "",
          "type": "address"
        }
      ],
      "stateMutability": "view",
      "type": "function"
    },
    {
      "inputs": [],
      "name": "owner",
      "outputs": [
        {
          "internalType": "address",
          "name": "",
          "type": "address"
        }
      ],
      "stateMutability": "view",
      "type": "function"
    },
    {
      "inputs": [
        {
          "internalType": "bytes32",
          "name": "salt",
          "type": "bytes32"
        }
      ],
      "name": "predicateAddr",
      "outputs": [
        {
          "internalType": "address",
          "name": "predicted",
          "type": "address"
        }
      ],
      "stateMutability": "view",
      "type": "function"
    },
    {
      "inputs": [],
      "name": "renounceOwnership",
      "outputs": [],
      "stateMutability": "nonpayable",
      "type": "function"
    },
    {
      "inputs": [
        {
          "internalType": "address",
          "name": "newOwner",
          "type": "address"
        }
      ],
      "name": "transferOwnership",
      "outputs": [],
      "stateMutability": "nonpayable",
      "type": "function"
    }
  ],
  "bytecode": "0x608060405234801561001057600080fd5b5060405161063c38038061063c83398101604081905261002f916100fa565b816001600160a01b03811661005e57604051631e4fbdf760e01b81526000600482015260240160405180910390fd5b6100678161008e565b50600180546001600160a01b0319166001600160a01b03929092169190911790555061012d565b600080546001600160a01b038381166001600160a01b0319831681178455604051919092169283917f8be0079c531659141344cd1fd0a4f28419497f9722a3daafe3b4186f6b6457e09190a35050565b80516001600160a01b03811681146100f557600080fd5b919050565b6000806040838503121561010d57600080fd5b610116836100de565b9150610124602084016100de565b90509250929050565b6105008061013c6000396000f3fe608060405234801561001057600080fd5b50600436106100625760003560e01c80631da5a33214610067578063715018a6146100965780638da5cb5b146100a0578063ba0f7a89146100b1578063c2616ab3146100c4578063f2fde38b146100d7575b600080fd5b61007a610075366004610436565b6100ea565b6040516001600160a01b03909116815260200160405180910390f35b61009e610109565b005b6000546001600160a01b031661007a565b60015461007a906001600160a01b031681565b61009e6100d236600461046b565b61011d565b61009e6100e53660046104af565b6101f8565b600154600090610103906001600160a01b03168361023b565b92915050565b6101116102a7565b61011b60006102d4565b565b6101256102a7565b60015460009061013e906001600160a01b031683610324565b6040516378072b4360e11b81526001600160a01b0387811660048301526024820187905285811660448301529192509082169063f00e568690606401600060405180830381600087803b15801561019457600080fd5b505af11580156101a8573d6000803e3d6000fd5b505050506101b581610332565b6040516001600160a01b03821681527f1449abf21e49fd025f33495e77f7b1461caefdd3d4bb646424a3f445c4576a5b9060200160405180910390a15050505050565b6102006102a7565b6001600160a01b03811661022f57604051631e4fbdf760e01b8152600060048201526024015b60405180910390fd5b610238816102d4565b50565b6040513060388201526f5af43d82803e903d91602b57fd5bf3ff602482015260148101839052733d602d80600a3d3981f3363d3d373d3d3d363d738152605881018290526037600c820120607882015260556043909101206000906001600160a01b03165b9392505050565b6000546001600160a01b0316331461011b5760405163118cdaa760e01b8152336004820152602401610226565b600080546001600160a01b038381166001600160a01b0319831681178455604051919092169283917f8be0079c531659141344cd1fd0a4f28419497f9722a3daafe3b4186f6b6457e09190a35050565b60006102a08383600061037a565b6040516001600160a01b03821660248201526102389060440160408051601f198184030181529190526020810180516001600160e01b031663161765e160e11b179052610411565b6000814710156103a65760405163cf47918160e01b815247600482015260248101839052604401610226565b763d602d80600a3d3981f3363d3d373d3d3d363d730000008460601b60e81c176000526e5af43d82803e903d91602b57fd5bf38460781b17602052826037600984f590506001600160a01b0381166102a05760405163b06ebf3d60e01b815260040160405180910390fd5b6102388160006a636f6e736f6c652e6c6f679050600080835160208501845afa505050565b60006020828403121561044857600080fd5b5035919050565b80356001600160a01b038116811461046657600080fd5b919050565b6000806000806080858703121561048157600080fd5b61048a8561044f565b93506020850135925061049f6040860161044f565b9396929550929360600135925050565b6000602082840312156104c157600080fd5b6102a08261044f56fea26469706673582212204acfaa518459217f9cab086f6e0d835118955ec6912f57959e1b31d7df6122c864736f6c634300081b0033",
  "linkReferences": {},
  "deployedLinkReferences": {}
}