{
  "_format": "hh-sol-artifact-1",
  "contractName": "RewardDistributor",
  "sourceName": "contracts/RewardDistributor.sol",
  "abi": [
    {
      "inputs": [
        {
          "internalType": "address",
          "name": "_safe",
          "type": "address"
        },
        {
          "internalType": "uint256",
          "name": "_posterFee",
          "type": "uint256"
        },
        {
          "internalType": "address",
          "name": "_rewardToken",
          "type": "address"
        }
      ],
      "stateMutability": "nonpayable",
      "type": "constructor"
    },
    {
      "inputs": [],
      "name": "ReentrancyGuardReentrantCall",
      "type": "error"
    },
    {
      "anonymous": false,
      "inputs": [
        {
          "indexed": false,
          "internalType": "uint256",
          "name": "newFee",
          "type": "uint256"
        },
        {
          "indexed": false,
          "internalType": "uint256",
          "name": "nonce",
          "type": "uint256"
        }
      ],
      "name": "PosterFeeUpdated",
      "type": "event"
    },
    {
      "anonymous": false,
      "inputs": [
        {
          "indexed": false,
          "internalType": "address",
          "name": "recipient",
          "type": "address"
        },
        {
          "indexed": false,
          "internalType": "uint256",
          "name": "amount",
          "type": "uint256"
        },
        {
          "indexed": false,
          "internalType": "address",
          "name": "claimer",
          "type": "address"
        }
      ],
      "name": "RewardClaimed",
      "type": "event"
    },
    {
      "anonymous": false,
      "inputs": [
        {
          "indexed": false,
          "internalType": "bytes32",
          "name": "root",
          "type": "bytes32"
        },
        {
          "indexed": false,
          "internalType": "uint256",
          "name": "amount",
          "type": "uint256"
        },
        {
          "indexed": false,
          "internalType": "address",
          "name": "poster",
          "type": "address"
        }
      ],
      "name": "RewardPosted",
      "type": "event"
    },
    {
      "stateMutability": "payable",
      "type": "fallback"
    },
    {
      "inputs": [
        {
          "internalType": "address",
          "name": "recipient",
          "type": "address"
        },
        {
          "internalType": "uint256",
          "name": "amount",
          "type": "uint256"
        },
        {
          "internalType": "uint256",
          "name": "kwilBlock",
          "type": "uint256"
        },
        {
          "internalType": "bytes32",
          "name": "rewardRoot",
          "type": "bytes32"
        },
        {
          "internalType": "bytes32[]",
          "name": "proof",
          "type": "bytes32[]"
        }
      ],
      "name": "claimReward",
      "outputs": [],
      "stateMutability": "payable",
      "type": "function"
    },
    {
      "inputs": [
        {
          "internalType": "bytes32",
          "name": "",
          "type": "bytes32"
        },
        {
          "internalType": "bytes32",
          "name": "",
          "type": "bytes32"
        }
      ],
      "name": "isRewardClaimed",
      "outputs": [
        {
          "internalType": "bool",
          "name": "",
          "type": "bool"
        }
      ],
      "stateMutability": "view",
      "type": "function"
    },
    {
      "inputs": [],
      "name": "nonce",
      "outputs": [
        {
          "internalType": "uint256",
          "name": "",
          "type": "uint256"
        }
      ],
      "stateMutability": "view",
      "type": "function"
    },
    {
      "inputs": [
        {
          "internalType": "bytes32",
          "name": "rewardRoot",
          "type": "bytes32"
        },
        {
          "internalType": "uint256",
          "name": "rewardAmount",
          "type": "uint256"
        }
      ],
      "name": "postReward",
      "outputs": [],
      "stateMutability": "nonpayable",
      "type": "function"
    },
    {
      "inputs": [],
      "name": "postedRewards",
      "outputs": [
        {
          "internalType": "uint256",
          "name": "",
          "type": "uint256"
        }
      ],
      "stateMutability": "view",
      "type": "function"
    },
    {
      "inputs": [],
      "name": "posterFee",
      "outputs": [
        {
          "internalType": "uint256",
          "name": "",
          "type": "uint256"
        }
      ],
      "stateMutability": "view",
      "type": "function"
    },
    {
      "inputs": [
        {
          "internalType": "bytes32",
          "name": "",
          "type": "bytes32"
        }
      ],
      "name": "rewardPoster",
      "outputs": [
        {
          "internalType": "address",
          "name": "",
          "type": "address"
        }
      ],
      "stateMutability": "view",
      "type": "function"
    },
    {
      "inputs": [],
      "name": "rewardToken",
      "outputs": [
        {
          "internalType": "contract IERC20",
          "name": "",
          "type": "address"
        }
      ],
      "stateMutability": "view",
      "type": "function"
    },
    {
      "inputs": [],
      "name": "safe",
      "outputs": [
        {
          "internalType": "address",
          "name": "",
          "type": "address"
        }
      ],
      "stateMutability": "view",
      "type": "function"
    },
    {
      "inputs": [],
      "name": "unpostedRewards",
      "outputs": [
        {
          "internalType": "uint256",
          "name": "",
          "type": "uint256"
        }
      ],
      "stateMutability": "view",
      "type": "function"
    },
    {
      "inputs": [
        {
          "internalType": "uint256",
          "name": "newFee",
          "type": "uint256"
        },
        {
          "internalType": "uint256",
          "name": "_nonce",
          "type": "uint256"
        }
      ],
      "name": "updatePosterFee",
      "outputs": [],
      "stateMutability": "nonpayable",
      "type": "function"
    },
    {
      "stateMutability": "payable",
      "type": "receive"
    }
  ],
  "bytecode": "0x60a060405234801561001057600080fd5b50604051610fd7380380610fd783398101604081905261002f9161014f565b60016000556001600160a01b03831661007e5760405162461bcd60e51b815260206004820152600c60248201526b5a45524f204144445245535360a01b60448201526064015b60405180910390fd5b6001600160a01b0381166100c35760405162461bcd60e51b815260206004820152600c60248201526b5a45524f204144445245535360a01b6044820152606401610075565b600082116101025760405162461bcd60e51b815260206004820152600c60248201526b506f7374466565207a65726f60a01b6044820152606401610075565b6003919091556001600160a01b03908116608052600580546001600160a01b0319169290911691909117905561018b565b80516001600160a01b038116811461014a57600080fd5b919050565b60008060006060848603121561016457600080fd5b61016d84610133565b92506020840151915061018260408501610133565b90509250925092565b608051610e1c6101bb600039600081816102c401528181610684015281816107b10152610a720152610e1c6000f3fe6080604052600436106100a05760003560e01c806375cbd82d1161006457806375cbd82d14610211578063affed0e014610247578063d5cf76f51461025d578063e08b22fa14610272578063eb630dd314610292578063f7c618c1146102b2576100f2565b8063122d52de1461013a578063186f03541461016357806327dda8931461019b578063324e1429146101e6578063408422bc146101fb576100f2565b366100f25760405162461bcd60e51b815260206004820152601b60248201527f4574686572207472616e7366657273206e6f7420616c6c6f776564000000000060448201526064015b60405180910390fd5b60405162461bcd60e51b815260206004820152601b60248201527f4574686572207472616e7366657273206e6f7420616c6c6f776564000000000060448201526064016100e9565b34801561014657600080fd5b5061015060045481565b6040519081526020015b60405180910390f35b34801561016f57600080fd5b50600554610183906001600160a01b031681565b6040516001600160a01b03909116815260200161015a565b3480156101a757600080fd5b506101d66101b6366004610c6b565b600260209081526000928352604080842090915290825290205460ff1681565b604051901515815260200161015a565b6101f96101f4366004610c8d565b6102e6565b005b34801561020757600080fd5b5061015060035481565b34801561021d57600080fd5b5061018361022c366004610d40565b6001602052600090815260409020546001600160a01b031681565b34801561025357600080fd5b5061015060065481565b34801561026957600080fd5b50610150610793565b34801561027e57600080fd5b506101f961028d366004610c6b565b610833565b34801561029e57600080fd5b506101f96102ad366004610c6b565b61096d565b3480156102be57600080fd5b506101837f000000000000000000000000000000000000000000000000000000000000000081565b6102ee610bb4565b6000838152600160205260409020546001600160a01b03168061034c5760405162461bcd60e51b815260206004820152601660248201527514995dd85c99081c9bdbdd081b9bdd081c1bdcdd195960521b60448201526064016100e9565b604080516001600160a01b03891660208201529081018790523060608201526080810186905260009060a00160408051601f198184030181528282528051602091820120908301520160408051601f19818403018152918152815160209283012060008881526002845282812082825290935291205490915060ff161561040e5760405162461bcd60e51b815260206004820152601660248201527514995dd85c9908185b1c9958591e4818db185a5b595960521b60448201526064016100e9565b61044e848480806020026020016040519081016040528093929190818152602001838360200280828437600092019190915250899250859150610bde9050565b61048a5760405162461bcd60e51b815260206004820152600d60248201526c24b73b30b634b210383937b7b360991b60448201526064016100e9565b6003543410156104dc5760405162461bcd60e51b815260206004820152601f60248201527f496e73756666696369656e74207061796d656e7420666f7220706f737465720060448201526064016100e9565b6000600354346104ec9190610d6f565b90506000836001600160a01b031660035460405160006040518083038185875af1925050503d806000811461053d576040519150601f19603f3d011682016040523d82523d6000602084013e610542565b606091505b50509050806105935760405162461bcd60e51b815260206004820152601d60248201527f506f7374657220726577617264207472616e73666572206661696c656400000060448201526064016100e9565b811561062357604051600090339084908381818185875af1925050503d80600081146105db576040519150601f19603f3d011682016040523d82523d6000602084013e6105e0565b606091505b50509050806106215760405162461bcd60e51b815260206004820152600d60248201526c1499599d5b990819985a5b1959609a1b60448201526064016100e9565b505b60008781526002602090815260408083208684529091528120805460ff19166001179055600480548b9290610659908490610d6f565b909155505060405163a9059cbb60e01b81526001600160a01b038b81166004830152602482018b90527f0000000000000000000000000000000000000000000000000000000000000000169063a9059cbb906044016020604051808303816000875af11580156106cd573d6000803e3d6000fd5b505050506040513d601f19601f820116820180604052508101906106f19190610d82565b6107355760405162461bcd60e51b8152602060048201526015602482015274151bdad95b881d1c985b9cd9995c8819985a5b1959605a1b60448201526064016100e9565b604080516001600160a01b038c168152602081018b9052338183015290517ff80b6d248ca65e589d3f24c7ce36e2df22ba16ba4e7656aad67e114abbe971d29181900360600190a15050505061078b6001600055565b505050505050565b600480546040516370a0823160e01b815230928101929092526000917f00000000000000000000000000000000000000000000000000000000000000006001600160a01b0316906370a0823190602401602060405180830381865afa158015610800573d6000803e3d6000fd5b505050506040513d601f19601f820116820180604052508101906108249190610da4565b61082e9190610d6f565b905090565b6005546001600160a01b0316331461087b5760405162461bcd60e51b815260206004820152600b60248201526a139bdd08185b1b1bddd95960aa1b60448201526064016100e9565b600082116108b65760405162461bcd60e51b8152602060048201526008602482015267466565207a65726f60c01b60448201526064016100e9565b80600654146108fe5760405162461bcd60e51b815260206004820152601460248201527309cdedcc6ca40c8decae640dcdee840dac2e8c6d60631b60448201526064016100e9565b816003819055506001600660008282546109189190610dbd565b925050819055507f7c7423dff6eff60ac491456a649034ee92866801bb236290a4b9190e370e89528260016006546109509190610d6f565b604080519283526020830191909152015b60405180910390a15050565b6005546001600160a01b031633146109b55760405162461bcd60e51b815260206004820152600b60248201526a139bdd08185b1b1bddd95960aa1b60448201526064016100e9565b600081116109f95760405162461bcd60e51b8152602060048201526011602482015270546f74616c20616d6f756e74207a65726f60781b60448201526064016100e9565b6000828152600160205260409020546001600160a01b031615610a4f5760405162461bcd60e51b815260206004820152600e60248201526d105b1c9958591e481c1bdcdd195960921b60448201526064016100e9565b80600454610a5d9190610dbd565b6040516370a0823160e01b81523060048201527f00000000000000000000000000000000000000000000000000000000000000006001600160a01b0316906370a0823190602401602060405180830381865afa158015610ac1573d6000803e3d6000fd5b505050506040513d601f19601f82011682018060405250810190610ae59190610da4565b1015610b3f5760405162461bcd60e51b8152602060048201526024808201527f496e73756666696369656e7420636f6e7472616374207265776172642062616c604482015263616e636560e01b60648201526084016100e9565b600082815260016020526040812080546001600160a01b0319163217905560048054839290610b6f908490610dbd565b9091555050604080518381526020810183905233918101919091527f88d468d3eafea83d2406f714eb4c2737e374f70e2f01fe43ec07e118e28d752590606001610961565b600260005403610bd757604051633ee5aeb560e01b815260040160405180910390fd5b6002600055565b600082610beb8584610bf4565b14949350505050565b600081815b8451811015610c2f57610c2582868381518110610c1857610c18610dd0565b6020026020010151610c39565b9150600101610bf9565b5090505b92915050565b6000818310610c55576000828152602084905260409020610c64565b60008381526020839052604090205b9392505050565b60008060408385031215610c7e57600080fd5b50508035926020909101359150565b60008060008060008060a08789031215610ca657600080fd5b86356001600160a01b0381168114610cbd57600080fd5b9550602087013594506040870135935060608701359250608087013567ffffffffffffffff811115610cee57600080fd5b8701601f81018913610cff57600080fd5b803567ffffffffffffffff811115610d1657600080fd5b8960208260051b8401011115610d2b57600080fd5b60208201935080925050509295509295509295565b600060208284031215610d5257600080fd5b5035919050565b634e487b7160e01b600052601160045260246000fd5b81810381811115610c3357610c33610d59565b600060208284031215610d9457600080fd5b81518015158114610c6457600080fd5b600060208284031215610db657600080fd5b5051919050565b80820180821115610c3357610c33610d59565b634e487b7160e01b600052603260045260246000fdfea264697066735822122022f6fd3696433409aae217ebe465e3ae633c4ee844afd7d54f0d1c389c8f0d8664736f6c634300081b0033",
  "linkReferences": {},
  "deployedLinkReferences": {}
}