{
  "_format": "hh-sol-artifact-1",
  "contractName": "RewardDistributor",
  "sourceName": "contracts/RewardDistributor.sol",
  "abi": [
    {
      "inputs": [],
      "name": "ReentrancyGuardReentrantCall",
      "type": "error"
    },
    {
      "anonymous": false,
      "inputs": [
        {
          "indexed": false,
          "internalType": "uint256",
          "name": "oldFee",
          "type": "uint256"
        },
        {
          "indexed": false,
          "internalType": "uint256",
          "name": "newFee",
          "type": "uint256"
        }
      ],
      "name": "PosterFeeUpdated",
      "type": "event"
    },
    {
      "anonymous": false,
      "inputs": [
        {
          "indexed": false,
          "internalType": "address",
          "name": "recipient",
          "type": "address"
        },
        {
          "indexed": false,
          "internalType": "uint256",
          "name": "amount",
          "type": "uint256"
        },
        {
          "indexed": false,
          "internalType": "address",
          "name": "claimer",
          "type": "address"
        }
      ],
      "name": "RewardClaimed",
      "type": "event"
    },
    {
      "anonymous": false,
      "inputs": [
        {
          "indexed": false,
          "internalType": "bytes32",
          "name": "root",
          "type": "bytes32"
        },
        {
          "indexed": false,
          "internalType": "uint256",
          "name": "amount",
          "type": "uint256"
        },
        {
          "indexed": false,
          "internalType": "address",
          "name": "poster",
          "type": "address"
        }
      ],
      "name": "RewardPosted",
      "type": "event"
    },
    {
      "stateMutability": "payable",
      "type": "fallback"
    },
    {
      "inputs": [
        {
          "internalType": "address",
          "name": "recipient",
          "type": "address"
        },
        {
          "internalType": "uint256",
          "name": "amount",
          "type": "uint256"
        },
        {
          "internalType": "bytes32",
          "name": "kwilBlockHash",
          "type": "bytes32"
        },
        {
          "internalType": "bytes32",
          "name": "rewardRoot",
          "type": "bytes32"
        },
        {
          "internalType": "bytes32[]",
          "name": "proofs",
          "type": "bytes32[]"
        }
      ],
      "name": "claimReward",
      "outputs": [],
      "stateMutability": "payable",
      "type": "function"
    },
    {
      "inputs": [
        {
          "internalType": "bytes32",
          "name": "",
          "type": "bytes32"
        },
        {
          "internalType": "bytes32",
          "name": "",
          "type": "bytes32"
        }
      ],
      "name": "isRewardClaimed",
      "outputs": [
        {
          "internalType": "bool",
          "name": "",
          "type": "bool"
        }
      ],
      "stateMutability": "view",
      "type": "function"
    },
    {
      "inputs": [
        {
          "internalType": "bytes32",
          "name": "root",
          "type": "bytes32"
        },
        {
          "internalType": "uint256",
          "name": "amount",
          "type": "uint256"
        }
      ],
      "name": "postReward",
      "outputs": [],
      "stateMutability": "nonpayable",
      "type": "function"
    },
    {
      "inputs": [],
      "name": "postedRewards",
      "outputs": [
        {
          "internalType": "uint256",
          "name": "",
          "type": "uint256"
        }
      ],
      "stateMutability": "view",
      "type": "function"
    },
    {
      "inputs": [],
      "name": "posterFee",
      "outputs": [
        {
          "internalType": "uint256",
          "name": "",
          "type": "uint256"
        }
      ],
      "stateMutability": "view",
      "type": "function"
    },
    {
      "inputs": [
        {
          "internalType": "bytes32",
          "name": "",
          "type": "bytes32"
        }
      ],
      "name": "rewardPoster",
      "outputs": [
        {
          "internalType": "address",
          "name": "",
          "type": "address"
        }
      ],
      "stateMutability": "view",
      "type": "function"
    },
    {
      "inputs": [],
      "name": "rewardToken",
      "outputs": [
        {
          "internalType": "contract IERC20",
          "name": "",
          "type": "address"
        }
      ],
      "stateMutability": "view",
      "type": "function"
    },
    {
      "inputs": [],
      "name": "safe",
      "outputs": [
        {
          "internalType": "address",
          "name": "",
          "type": "address"
        }
      ],
      "stateMutability": "view",
      "type": "function"
    },
    {
      "inputs": [
        {
          "internalType": "address",
          "name": "_safe",
          "type": "address"
        },
        {
          "internalType": "uint256",
          "name": "_posterFee",
          "type": "uint256"
        },
        {
          "internalType": "address",
          "name": "_rewardToken",
          "type": "address"
        }
      ],
      "name": "setup",
      "outputs": [],
      "stateMutability": "nonpayable",
      "type": "function"
    },
    {
      "inputs": [],
      "name": "unpostedRewards",
      "outputs": [
        {
          "internalType": "uint256",
          "name": "",
          "type": "uint256"
        }
      ],
      "stateMutability": "view",
      "type": "function"
    },
    {
      "inputs": [
        {
          "internalType": "uint256",
          "name": "newFee",
          "type": "uint256"
        }
      ],
      "name": "updatePosterFee",
      "outputs": [],
      "stateMutability": "nonpayable",
      "type": "function"
    },
    {
      "stateMutability": "payable",
      "type": "receive"
    }
  ],
  "bytecode": "0x6080604052348015600f57600080fd5b506001600055610ee2806100246000396000f3fe6080604052600436106100a05760003560e01c806375cbd82d1161006457806375cbd82d14610211578063b19050bd14610247578063d5cf76f514610267578063eb630dd31461027c578063f00e56861461029c578063f7c618c1146102bc576100f2565b8063122d52de1461013a578063186f03541461016357806327dda8931461019b578063408422bc146101e657806363e6a87c146101fc576100f2565b366100f25760405162461bcd60e51b815260206004820152601b60248201527f4574686572207472616e7366657273206e6f7420616c6c6f776564000000000060448201526064015b60405180910390fd5b60405162461bcd60e51b815260206004820152601b60248201527f4574686572207472616e7366657273206e6f7420616c6c6f776564000000000060448201526064016100e9565b34801561014657600080fd5b5061015060055481565b6040519081526020015b60405180910390f35b34801561016f57600080fd5b50600654610183906001600160a01b031681565b6040516001600160a01b03909116815260200161015a565b3480156101a757600080fd5b506101d66101b6366004610ce7565b600260209081526000928352604080842090915290825290205460ff1681565b604051901515815260200161015a565b3480156101f257600080fd5b5061015060035481565b61020f61020a366004610d25565b6102dc565b005b34801561021d57600080fd5b5061018361022c366004610dca565b6001602052600090815260409020546001600160a01b031681565b34801561025357600080fd5b5061020f610262366004610dca565b61076f565b34801561027357600080fd5b50610150610838565b34801561028857600080fd5b5061020f610297366004610ce7565b6108bd565b3480156102a857600080fd5b5061020f6102b7366004610de3565b610ae9565b3480156102c857600080fd5b50600454610183906001600160a01b031681565b6102e4610c30565b6000838152600160205260409020546001600160a01b0316806103425760405162461bcd60e51b815260206004820152601660248201527514995dd85c99081c9bdbdd081b9bdd081c1bdcdd195960521b60448201526064016100e9565b604080516001600160a01b03891660208201529081018790523060608201526080810186905260009060a00160408051601f198184030181528282528051602091820120908301520160408051601f19818403018152918152815160209283012060008881526002845282812082825290935291205490915060ff16156104045760405162461bcd60e51b815260206004820152601660248201527514995dd85c9908185b1c9958591e4818db185a5b595960521b60448201526064016100e9565b610444848480806020026020016040519081016040528093929190818152602001838360200280828437600092019190915250899250859150610c5a9050565b6104805760405162461bcd60e51b815260206004820152600d60248201526c24b73b30b634b210383937b7b360991b60448201526064016100e9565b6003543410156104d25760405162461bcd60e51b815260206004820152601f60248201527f496e73756666696369656e74207061796d656e7420666f7220706f737465720060448201526064016100e9565b6000600354346104e29190610e35565b90506000836001600160a01b031660035460405160006040518083038185875af1925050503d8060008114610533576040519150601f19603f3d011682016040523d82523d6000602084013e610538565b606091505b50509050806105895760405162461bcd60e51b815260206004820152601d60248201527f506f7374657220726577617264207472616e73666572206661696c656400000060448201526064016100e9565b811561061957604051600090339084908381818185875af1925050503d80600081146105d1576040519150601f19603f3d011682016040523d82523d6000602084013e6105d6565b606091505b50509050806106175760405162461bcd60e51b815260206004820152600d60248201526c1499599d5b990819985a5b1959609a1b60448201526064016100e9565b505b60008781526002602090815260408083208684529091528120805460ff19166001179055600580548b929061064f908490610e35565b90915550506004805460405163a9059cbb60e01b81526001600160a01b038d811693820193909352602481018c905291169063a9059cbb906044016020604051808303816000875af11580156106a9573d6000803e3d6000fd5b505050506040513d601f19601f820116820180604052508101906106cd9190610e48565b6107115760405162461bcd60e51b8152602060048201526015602482015274151bdad95b881d1c985b9cd9995c8819985a5b1959605a1b60448201526064016100e9565b604080516001600160a01b038c168152602081018b9052338183015290517ff80b6d248ca65e589d3f24c7ce36e2df22ba16ba4e7656aad67e114abbe971d29181900360600190a1505050506107676001600055565b505050505050565b6006546001600160a01b031633146107b75760405162461bcd60e51b815260206004820152600b60248201526a139bdd08185b1b1bddd95960aa1b60448201526064016100e9565b600081116107f25760405162461bcd60e51b8152602060048201526008602482015267466565207a65726f60c01b60448201526064016100e9565b600380549082905560408051828152602081018490527f7c7423dff6eff60ac491456a649034ee92866801bb236290a4b9190e370e895291015b60405180910390a15050565b600554600480546040516370a0823160e01b81523092810192909252600092916001600160a01b03909116906370a0823190602401602060405180830381865afa15801561088a573d6000803e3d6000fd5b505050506040513d601f19601f820116820180604052508101906108ae9190610e6a565b6108b89190610e35565b905090565b6006546001600160a01b031633146109055760405162461bcd60e51b815260206004820152600b60248201526a139bdd08185b1b1bddd95960aa1b60448201526064016100e9565b600081116109495760405162461bcd60e51b8152602060048201526011602482015270546f74616c20616d6f756e74207a65726f60781b60448201526064016100e9565b6000828152600160205260409020546001600160a01b03161561099f5760405162461bcd60e51b815260206004820152600e60248201526d105b1c9958591e481c1bdcdd195960921b60448201526064016100e9565b806005546109ad9190610e83565b600480546040516370a0823160e01b815230928101929092526001600160a01b0316906370a0823190602401602060405180830381865afa1580156109f6573d6000803e3d6000fd5b505050506040513d601f19601f82011682018060405250810190610a1a9190610e6a565b1015610a745760405162461bcd60e51b8152602060048201526024808201527f496e73756666696369656e7420636f6e7472616374207265776172642062616c604482015263616e636560e01b60648201526084016100e9565b600082815260016020526040812080546001600160a01b0319163217905560058054839290610aa4908490610e83565b9091555050604080518381526020810183905233918101919091527f88d468d3eafea83d2406f714eb4c2737e374f70e2f01fe43ec07e118e28d75259060600161082c565b6006546001600160a01b031615610b305760405162461bcd60e51b815260206004820152600b60248201526a105b1c9958591e481cd95d60aa1b60448201526064016100e9565b6001600160a01b038316610b755760405162461bcd60e51b815260206004820152600c60248201526b5a45524f204144445245535360a01b60448201526064016100e9565b6001600160a01b038116610bba5760405162461bcd60e51b815260206004820152600c60248201526b5a45524f204144445245535360a01b60448201526064016100e9565b60008211610bf95760405162461bcd60e51b815260206004820152600c60248201526b506f7374466565207a65726f60a01b60448201526064016100e9565b600391909155600480546001600160a01b039283166001600160a01b03199182161790915560068054939092169216919091179055565b600260005403610c5357604051633ee5aeb560e01b815260040160405180910390fd5b6002600055565b600082610c678584610c70565b14949350505050565b600081815b8451811015610cab57610ca182868381518110610c9457610c94610e96565b6020026020010151610cb5565b9150600101610c75565b5090505b92915050565b6000818310610cd1576000828152602084905260409020610ce0565b60008381526020839052604090205b9392505050565b60008060408385031215610cfa57600080fd5b50508035926020909101359150565b80356001600160a01b0381168114610d2057600080fd5b919050565b60008060008060008060a08789031215610d3e57600080fd5b610d4787610d09565b9550602087013594506040870135935060608701359250608087013567ffffffffffffffff811115610d7857600080fd5b8701601f81018913610d8957600080fd5b803567ffffffffffffffff811115610da057600080fd5b8960208260051b8401011115610db557600080fd5b60208201935080925050509295509295509295565b600060208284031215610ddc57600080fd5b5035919050565b600080600060608486031215610df857600080fd5b610e0184610d09565b925060208401359150610e1660408501610d09565b90509250925092565b634e487b7160e01b600052601160045260246000fd5b81810381811115610caf57610caf610e1f565b600060208284031215610e5a57600080fd5b81518015158114610ce057600080fd5b600060208284031215610e7c57600080fd5b5051919050565b80820180821115610caf57610caf610e1f565b634e487b7160e01b600052603260045260246000fdfea264697066735822122044c3446981dda0c21cce869a25a806cf46dd9c1a378382a045b27bb00e7614c064736f6c634300081b0033",
  "linkReferences": {},
  "deployedLinkReferences": {}
}