{
  "_format": "hh-sol-artifact-1",
  "contractName": "RewardDistributor",
  "sourceName": "contracts/RewardDistributor.sol",
  "abi": [
    {
      "inputs": [],
      "name": "ReentrancyGuardReentrantCall",
      "type": "error"
    },
    {
      "inputs": [
        {
          "internalType": "address",
          "name": "token",
          "type": "address"
        }
      ],
      "name": "SafeERC20FailedOperation",
      "type": "error"
    },
    {
      "anonymous": false,
      "inputs": [
        {
          "indexed": false,
          "internalType": "address",
          "name": "depositor",
          "type": "address"
        },
        {
          "indexed": false,
          "internalType": "uint256",
          "name": "amount",
          "type": "uint256"
        }
      ],
      "name": "Credit",
      "type": "event"
    },
    {
      "anonymous": false,
      "inputs": [
        {
          "indexed": false,
          "internalType": "uint256",
          "name": "oldFee",
          "type": "uint256"
        },
        {
          "indexed": false,
          "internalType": "uint256",
          "name": "newFee",
          "type": "uint256"
        }
      ],
      "name": "PosterFeeUpdated",
      "type": "event"
    },
    {
      "anonymous": false,
      "inputs": [
        {
          "indexed": false,
          "internalType": "address",
          "name": "recipient",
          "type": "address"
        },
        {
          "indexed": false,
          "internalType": "uint256",
          "name": "amount",
          "type": "uint256"
        },
        {
          "indexed": false,
          "internalType": "address",
          "name": "claimer",
          "type": "address"
        }
      ],
      "name": "RewardClaimed",
      "type": "event"
    },
    {
      "anonymous": false,
      "inputs": [
        {
          "indexed": false,
          "internalType": "bytes32",
          "name": "root",
          "type": "bytes32"
        },
        {
          "indexed": false,
          "internalType": "uint256",
          "name": "amount",
          "type": "uint256"
        },
        {
          "indexed": false,
          "internalType": "address",
          "name": "poster",
          "type": "address"
        }
      ],
      "name": "RewardPosted",
      "type": "event"
    },
    {
      "inputs": [
        {
          "internalType": "address",
          "name": "recipient",
          "type": "address"
        },
        {
          "internalType": "uint256",
          "name": "amount",
          "type": "uint256"
        },
        {
          "internalType": "bytes32",
          "name": "kwilBlockHash",
          "type": "bytes32"
        },
        {
          "internalType": "bytes32",
          "name": "rewardRoot",
          "type": "bytes32"
        },
        {
          "internalType": "bytes32[]",
          "name": "proofs",
          "type": "bytes32[]"
        }
      ],
      "name": "claimReward",
      "outputs": [],
      "stateMutability": "payable",
      "type": "function"
    },
    {
      "inputs": [
        {
          "internalType": "uint256",
          "name": "amount",
          "type": "uint256"
        }
      ],
      "name": "deposit",
      "outputs": [],
      "stateMutability": "nonpayable",
      "type": "function"
    },
    {
      "inputs": [
        {
          "internalType": "address",
          "name": "from",
          "type": "address"
        },
        {
          "internalType": "uint256",
          "name": "amount",
          "type": "uint256"
        }
      ],
      "name": "depositFrom",
      "outputs": [],
      "stateMutability": "nonpayable",
      "type": "function"
    },
    {
      "inputs": [
        {
          "internalType": "bytes32",
          "name": "",
          "type": "bytes32"
        },
        {
          "internalType": "bytes32",
          "name": "",
          "type": "bytes32"
        }
      ],
      "name": "isLeafRewardClaimed",
      "outputs": [
        {
          "internalType": "bool",
          "name": "",
          "type": "bool"
        }
      ],
      "stateMutability": "view",
      "type": "function"
    },
    {
      "inputs": [],
      "name": "maxPosterFee",
      "outputs": [
        {
          "internalType": "uint256",
          "name": "",
          "type": "uint256"
        }
      ],
      "stateMutability": "view",
      "type": "function"
    },
    {
      "inputs": [
        {
          "internalType": "bytes32",
          "name": "root",
          "type": "bytes32"
        },
        {
          "internalType": "uint256",
          "name": "amount",
          "type": "uint256"
        }
      ],
      "name": "postReward",
      "outputs": [],
      "stateMutability": "nonpayable",
      "type": "function"
    },
    {
      "inputs": [],
      "name": "posterFee",
      "outputs": [
        {
          "internalType": "uint256",
          "name": "",
          "type": "uint256"
        }
      ],
      "stateMutability": "view",
      "type": "function"
    },
    {
      "inputs": [
        {
          "internalType": "bytes32",
          "name": "",
          "type": "bytes32"
        }
      ],
      "name": "rewardLeft",
      "outputs": [
        {
          "internalType": "uint256",
          "name": "",
          "type": "uint256"
        }
      ],
      "stateMutability": "view",
      "type": "function"
    },
    {
      "inputs": [
        {
          "internalType": "bytes32",
          "name": "",
          "type": "bytes32"
        }
      ],
      "name": "rewardPoster",
      "outputs": [
        {
          "internalType": "address",
          "name": "",
          "type": "address"
        }
      ],
      "stateMutability": "view",
      "type": "function"
    },
    {
      "inputs": [],
      "name": "rewardToken",
      "outputs": [
        {
          "internalType": "contract IERC20",
          "name": "",
          "type": "address"
        }
      ],
      "stateMutability": "view",
      "type": "function"
    },
    {
      "inputs": [],
      "name": "safe",
      "outputs": [
        {
          "internalType": "address",
          "name": "",
          "type": "address"
        }
      ],
      "stateMutability": "view",
      "type": "function"
    },
    {
      "inputs": [
        {
          "internalType": "address",
          "name": "_safe",
          "type": "address"
        },
        {
          "internalType": "uint256",
          "name": "_posterFee",
          "type": "uint256"
        },
        {
          "internalType": "address",
          "name": "_rewardToken",
          "type": "address"
        }
      ],
      "name": "setup",
      "outputs": [],
      "stateMutability": "nonpayable",
      "type": "function"
    },
    {
      "inputs": [],
      "name": "totalReward",
      "outputs": [
        {
          "internalType": "uint256",
          "name": "",
          "type": "uint256"
        }
      ],
      "stateMutability": "view",
      "type": "function"
    },
    {
      "inputs": [
        {
          "internalType": "uint256",
          "name": "newFee",
          "type": "uint256"
        }
      ],
      "name": "updatePosterFee",
      "outputs": [],
      "stateMutability": "nonpayable",
      "type": "function"
    }
  ],
  "bytecode": "0x6080604052348015600f57600080fd5b50600160005561125d806100246000396000f3fe6080604052600436106100dd5760003560e01c8063750142e61161007f578063b6b55f2511610059578063b6b55f2514610277578063eb630dd314610297578063f00e5686146102b7578063f7c618c1146102d757600080fd5b8063750142e61461020b57806375cbd82d14610221578063b19050bd1461025757600080fd5b8063408422bc116100bb578063408422bc1461018c5780634a2179d2146101b057806363e6a87c146101cb5780636feb232a146101de57600080fd5b806315cc36f2146100e2578063186f0354146101045780632d57e17714610141575b600080fd5b3480156100ee57600080fd5b506101026100fd36600461106c565b6102f7565b005b34801561011057600080fd5b50600554610124906001600160a01b031681565b6040516001600160a01b0390911681526020015b60405180910390f35b34801561014d57600080fd5b5061017c61015c366004611096565b600360209081526000928352604080842090915290825290205460ff1681565b6040519015158152602001610138565b34801561019857600080fd5b506101a260065481565b604051908152602001610138565b3480156101bc57600080fd5b506101a2662386f26fc1000081565b6101026101d93660046110b8565b610479565b3480156101ea57600080fd5b506101a26101f936600461115d565b60026020526000908152604090205481565b34801561021757600080fd5b506101a260045481565b34801561022d57600080fd5b5061012461023c36600461115d565b6001602052600090815260409020546001600160a01b031681565b34801561026357600080fd5b5061010261027236600461115d565b6108f7565b34801561028357600080fd5b5061010261029236600461115d565b6109df565b3480156102a357600080fd5b506101026102b2366004611096565b610ad6565b3480156102c357600080fd5b506101026102d2366004611176565b610cf5565b3480156102e357600080fd5b50600754610124906001600160a01b031681565b6005546001600160a01b0316331461032a5760405162461bcd60e51b8152600401610321906111b2565b60405180910390fd5b6007546001600160a01b031661037d5760405162461bcd60e51b815260206004820152601860248201527710dbdb9d1c9858dd081b9bdd081a5b9a5d1a585b1a5e995960421b6044820152606401610321565b600081116103cd5760405162461bcd60e51b815260206004820152601d60248201527f416d6f756e74206d7573742062652067726561746572207468616e20300000006044820152606401610321565b6001600160a01b03821661041a5760405162461bcd60e51b8152602060048201526014602482015273496e76616c69642066726f6d206164647265737360601b6044820152606401610321565b600754610432906001600160a01b0316833084610e85565b604080516001600160a01b0384168152602081018390527f1bbf55d483639f8103dc4e035af71a4fbdb16c80be740fa3eef81198acefa09491015b60405180910390a15050565b610481610ef2565b6000838152600160205260409020546001600160a01b0316806104df5760405162461bcd60e51b815260206004820152601660248201527514995dd85c99081c9bdbdd081b9bdd081c1bdcdd195960521b6044820152606401610321565b8560045410156105255760405162461bcd60e51b8152602060048201526011602482015270139bdd08195b9bdd59da081c995dd85c99607a1b6044820152606401610321565b60008481526002602052604090205486111561057c5760405162461bcd60e51b8152602060048201526016602482015275139bdd08195b9bdd59da081c995dd85c99081b19599d60521b6044820152606401610321565b604080516001600160a01b03891660208201529081018790523060608201526080810186905260009060a00160408051601f198184030181528282528051602091820120908301520160408051601f19818403018152918152815160209283012060008881526003845282812082825290935291205490915060ff161561063e5760405162461bcd60e51b815260206004820152601660248201527514995dd85c9908185b1c9958591e4818db185a5b595960521b6044820152606401610321565b61067e848480806020026020016040519081016040528093929190818152602001838360200280828437600092019190915250899250859150610f1c9050565b6106ba5760405162461bcd60e51b815260206004820152600d60248201526c24b73b30b634b210383937b7b360991b6044820152606401610321565b6006543481111561070d5760405162461bcd60e51b815260206004820152601f60248201527f496e73756666696369656e74207061796d656e7420666f7220706f73746572006044820152606401610321565b60405134829003906000906001600160a01b0386169084908381818185875af1925050503d806000811461075d576040519150601f19603f3d011682016040523d82523d6000602084013e610762565b606091505b50509050806107b35760405162461bcd60e51b815260206004820152601d60248201527f506f7374657220726577617264207472616e73666572206661696c65640000006044820152606401610321565b811561084357604051600090339084908381818185875af1925050503d80600081146107fb576040519150601f19603f3d011682016040523d82523d6000602084013e610800565b606091505b50509050806108415760405162461bcd60e51b815260206004820152600d60248201526c1499599d5b990819985a5b1959609a1b6044820152606401610321565b505b60008881526003602090815260408083208784528252808320805460ff19166001179055600480548e900390558a83526002909152902080548b90039055600754610898906001600160a01b03168c8c610f32565b604080516001600160a01b038d168152602081018c9052338183015290517ff80b6d248ca65e589d3f24c7ce36e2df22ba16ba4e7656aad67e114abbe971d29181900360600190a150505050506108ef6001600055565b505050505050565b6005546001600160a01b031633146109215760405162461bcd60e51b8152600401610321906111b2565b6000811161095c5760405162461bcd60e51b8152602060048201526008602482015267466565207a65726f60c01b6044820152606401610321565b662386f26fc1000081106109a15760405162461bcd60e51b815260206004820152600c60248201526b08ccaca40e8dede40d0d2ced60a31b6044820152606401610321565b600680549082905560408051828152602081018490527f7c7423dff6eff60ac491456a649034ee92866801bb236290a4b9190e370e8952910161046d565b6007546001600160a01b0316610a325760405162461bcd60e51b815260206004820152601860248201527710dbdb9d1c9858dd081b9bdd081a5b9a5d1a585b1a5e995960421b6044820152606401610321565b60008111610a825760405162461bcd60e51b815260206004820152601d60248201527f416d6f756e74206d7573742062652067726561746572207468616e20300000006044820152606401610321565b600754610a9a906001600160a01b0316333084610e85565b60408051338152602081018390527f1bbf55d483639f8103dc4e035af71a4fbdb16c80be740fa3eef81198acefa094910160405180910390a150565b6005546001600160a01b03163314610b005760405162461bcd60e51b8152600401610321906111b2565b60008111610b445760405162461bcd60e51b8152602060048201526011602482015270546f74616c20616d6f756e74207a65726f60781b6044820152606401610321565b6000828152600160205260409020546001600160a01b031615610b9a5760405162461bcd60e51b815260206004820152600e60248201526d105b1c9958591e481c1bdcdd195960921b6044820152606401610321565b80600454610ba891906111d7565b6007546040516370a0823160e01b81523060048201526001600160a01b03909116906370a0823190602401602060405180830381865afa158015610bf0573d6000803e3d6000fd5b505050506040513d601f19601f82011682018060405250810190610c1491906111f8565b1015610c6e5760405162461bcd60e51b8152602060048201526024808201527f496e73756666696369656e7420636f6e7472616374207265776172642062616c604482015263616e636560e01b6064820152608401610321565b600082815260016020526040812080546001600160a01b0319163217905560048054839290610c9e9084906111d7565b9091555050600082815260026020908152604091829020839055815184815290810183905232918101919091527f88d468d3eafea83d2406f714eb4c2737e374f70e2f01fe43ec07e118e28d75259060600161046d565b6005546001600160a01b031615610d445760405162461bcd60e51b8152602060048201526013602482015272105b1c9958591e481a5b9a5d1a585b1a5e9959606a1b6044820152606401610321565b6001600160a01b038316610d895760405162461bcd60e51b815260206004820152600c60248201526b5a45524f204144445245535360a01b6044820152606401610321565b6001600160a01b038116610dce5760405162461bcd60e51b815260206004820152600c60248201526b5a45524f204144445245535360a01b6044820152606401610321565b60008211610e095760405162461bcd60e51b8152602060048201526008602482015267466565207a65726f60c01b6044820152606401610321565b662386f26fc100008210610e4e5760405162461bcd60e51b815260206004820152600c60248201526b08ccaca40e8dede40d0d2ced60a31b6044820152606401610321565b600691909155600780546001600160a01b039283166001600160a01b03199182161790915560058054939092169216919091179055565b6040516001600160a01b038481166024830152838116604483015260648201839052610eec9186918216906323b872dd906084015b604051602081830303815290604052915060e01b6020820180516001600160e01b038381831617835250505050610f68565b50505050565b600260005403610f1557604051633ee5aeb560e01b815260040160405180910390fd5b6002600055565b600082610f298584610fd9565b14949350505050565b6040516001600160a01b03838116602483015260448201839052610f6391859182169063a9059cbb90606401610eba565b505050565b600080602060008451602086016000885af180610f8b576040513d6000823e3d81fd5b50506000513d91508115610fa3578060011415610fb0565b6001600160a01b0384163b155b15610eec57604051635274afe760e01b81526001600160a01b0385166004820152602401610321565b600081815b84518110156110145761100a82868381518110610ffd57610ffd611211565b602002602001015161101e565b9150600101610fde565b5090505b92915050565b600081831061103a576000828152602084905260409020611049565b60008381526020839052604090205b9392505050565b80356001600160a01b038116811461106757600080fd5b919050565b6000806040838503121561107f57600080fd5b61108883611050565b946020939093013593505050565b600080604083850312156110a957600080fd5b50508035926020909101359150565b60008060008060008060a087890312156110d157600080fd5b6110da87611050565b9550602087013594506040870135935060608701359250608087013567ffffffffffffffff81111561110b57600080fd5b8701601f8101891361111c57600080fd5b803567ffffffffffffffff81111561113357600080fd5b8960208260051b840101111561114857600080fd5b60208201935080925050509295509295509295565b60006020828403121561116f57600080fd5b5035919050565b60008060006060848603121561118b57600080fd5b61119484611050565b9250602084013591506111a960408501611050565b90509250925092565b6020808252600b908201526a139bdd08185b1b1bddd95960aa1b604082015260600190565b8082018082111561101857634e487b7160e01b600052601160045260246000fd5b60006020828403121561120a57600080fd5b5051919050565b634e487b7160e01b600052603260045260246000fdfea264697066735822122015e442df01b9fa50f440309c4b246a3f28dc76be587d1f47c170a5608677cfd264736f6c634300081b0033",
  "linkReferences": {},
  "deployedLinkReferences": {}
}